{
  "_format": "hh-sol-artifact-1",
  "contractName": "CourtRegistry",
  "sourceName": "contracts/CourtRegistry.sol",
  "abi": [
    {
      "inputs": [],
      "stateMutability": "nonpayable",
      "type": "constructor"
    },
    {
      "inputs": [
        {
          "internalType": "address",
          "name": "owner",
          "type": "address"
        }
      ],
      "name": "OwnableInvalidOwner",
      "type": "error"
    },
    {
      "inputs": [
        {
          "internalType": "address",
          "name": "account",
          "type": "address"
        }
      ],
      "name": "OwnableUnauthorizedAccount",
      "type": "error"
    },
    {
      "anonymous": false,
      "inputs": [
        {
          "indexed": true,
          "internalType": "address",
          "name": "juror",
          "type": "address"
        },
        {
          "indexed": false,
          "internalType": "uint256",
          "name": "timestamp",
          "type": "uint256"
        }
      ],
      "name": "JurorApproved",
      "type": "event"
    },
    {
      "anonymous": false,
      "inputs": [
        {
          "indexed": true,
          "internalType": "address",
          "name": "juror",
          "type": "address"
        },
        {
          "indexed": false,
          "internalType": "uint256",
          "name": "timestamp",
          "type": "uint256"
        }
      ],
      "name": "JurorRemoved",
      "type": "event"
    },
    {
      "anonymous": false,
      "inputs": [
        {
          "indexed": true,
          "internalType": "address",
          "name": "juror",
          "type": "address"
        },
        {
          "indexed": false,
          "internalType": "bool",
          "name": "wasMajority",
          "type": "bool"
        },
        {
          "indexed": false,
          "internalType": "uint256",
          "name": "earnings",
          "type": "uint256"
        },
        {
          "indexed": false,
          "internalType": "uint256",
          "name": "timestamp",
          "type": "uint256"
        }
      ],
      "name": "JurorStatsUpdated",
      "type": "event"
    },
    {
      "anonymous": false,
      "inputs": [
        {
          "indexed": true,
          "internalType": "address",
          "name": "juror",
          "type": "address"
        },
        {
          "indexed": false,
          "internalType": "uint256",
          "name": "timestamp",
          "type": "uint256"
        }
      ],
      "name": "JurorWarned",
      "type": "event"
    },
    {
      "anonymous": false,
      "inputs": [
        {
          "indexed": true,
          "internalType": "address",
          "name": "previousOwner",
          "type": "address"
        },
        {
          "indexed": true,
          "internalType": "address",
          "name": "newOwner",
          "type": "address"
        }
      ],
      "name": "OwnershipTransferred",
      "type": "event"
    },
    {
      "inputs": [],
      "name": "MAX_JURORS",
      "outputs": [
        {
          "internalType": "uint256",
          "name": "",
          "type": "uint256"
        }
      ],
      "stateMutability": "view",
      "type": "function"
    },
    {
      "inputs": [
        {
          "internalType": "address",
          "name": "_juror",
          "type": "address"
        }
      ],
      "name": "approveJuror",
      "outputs": [],
      "stateMutability": "nonpayable",
      "type": "function"
    },
    {
      "inputs": [],
      "name": "getActiveJurors",
      "outputs": [
        {
          "internalType": "address[]",
          "name": "",
          "type": "address[]"
        }
      ],
      "stateMutability": "view",
      "type": "function"
    },
    {
      "inputs": [],
      "name": "getAllJurors",
      "outputs": [
        {
          "internalType": "address[]",
          "name": "",
          "type": "address[]"
        }
      ],
      "stateMutability": "view",
      "type": "function"
    },
    {
      "inputs": [
        {
          "internalType": "address",
          "name": "_juror",
          "type": "address"
        }
      ],
      "name": "getJuror",
      "outputs": [
        {
          "components": [
            {
              "internalType": "address",
              "name": "wallet",
              "type": "address"
            },
            {
              "internalType": "uint256",
              "name": "totalVotes",
              "type": "uint256"
            },
            {
              "internalType": "uint256",
              "name": "majorityVotes",
              "type": "uint256"
            },
            {
              "internalType": "uint256",
              "name": "minorityVotes",
              "type": "uint256"
            },
            {
              "internalType": "uint256",
              "name": "totalEarnings",
              "type": "uint256"
            },
            {
              "internalType": "enum CourtRegistry.JurorStatus",
              "name": "status",
              "type": "uint8"
            },
            {
              "internalType": "uint256",
              "name": "registeredAt",
              "type": "uint256"
            }
          ],
          "internalType": "struct CourtRegistry.Juror",
          "name": "",
          "type": "tuple"
        }
      ],
      "stateMutability": "view",
      "type": "function"
    },
    {
      "inputs": [
        {
          "internalType": "address",
          "name": "_juror",
          "type": "address"
        }
      ],
      "name": "isActiveJuror",
      "outputs": [
        {
          "internalType": "bool",
          "name": "",
          "type": "bool"
        }
      ],
      "stateMutability": "view",
      "type": "function"
    },
    {
      "inputs": [
        {
          "internalType": "address",
          "name": "",
          "type": "address"
        }
      ],
      "name": "isRegistered",
      "outputs": [
        {
          "internalType": "bool",
          "name": "",
          "type": "bool"
        }
      ],
      "stateMutability": "view",
      "type": "function"
    },
    {
      "inputs": [
        {
          "internalType": "uint256",
          "name": "",
          "type": "uint256"
        }
      ],
      "name": "jurorList",
      "outputs": [
        {
          "internalType": "address",
          "name": "",
          "type": "address"
        }
      ],
      "stateMutability": "view",
      "type": "function"
    },
    {
      "inputs": [
        {
          "internalType": "address",
          "name": "",
          "type": "address"
        }
      ],
      "name": "jurors",
      "outputs": [
        {
          "internalType": "address",
          "name": "wallet",
          "type": "address"
        },
        {
          "internalType": "uint256",
          "name": "totalVotes",
          "type": "uint256"
        },
        {
          "internalType": "uint256",
          "name": "majorityVotes",
          "type": "uint256"
        },
        {
          "internalType": "uint256",
          "name": "minorityVotes",
          "type": "uint256"
        },
        {
          "internalType": "uint256",
          "name": "totalEarnings",
          "type": "uint256"
        },
        {
          "internalType": "enum CourtRegistry.JurorStatus",
          "name": "status",
          "type": "uint8"
        },
        {
          "internalType": "uint256",
          "name": "registeredAt",
          "type": "uint256"
        }
      ],
      "stateMutability": "view",
      "type": "function"
    },
    {
      "inputs": [],
      "name": "owner",
      "outputs": [
        {
          "internalType": "address",
          "name": "",
          "type": "address"
        }
      ],
      "stateMutability": "view",
      "type": "function"
    },
    {
      "inputs": [
        {
          "internalType": "address",
          "name": "_juror",
          "type": "address"
        }
      ],
      "name": "removeJuror",
      "outputs": [],
      "stateMutability": "nonpayable",
      "type": "function"
    },
    {
      "inputs": [],
      "name": "renounceOwnership",
      "outputs": [],
      "stateMutability": "nonpayable",
      "type": "function"
    },
    {
      "inputs": [],
      "name": "totalJurors",
      "outputs": [
        {
          "internalType": "uint256",
          "name": "",
          "type": "uint256"
        }
      ],
      "stateMutability": "view",
      "type": "function"
    },
    {
      "inputs": [
        {
          "internalType": "address",
          "name": "newOwner",
          "type": "address"
        }
      ],
      "name": "transferOwnership",
      "outputs": [],
      "stateMutability": "nonpayable",
      "type": "function"
    },
    {
      "inputs": [
        {
          "internalType": "address",
          "name": "_juror",
          "type": "address"
        },
        {
          "internalType": "bool",
          "name": "_wasMajority",
          "type": "bool"
        },
        {
          "internalType": "uint256",
          "name": "_earnings",
          "type": "uint256"
        }
      ],
      "name": "updateJurorStats",
      "outputs": [],
      "stateMutability": "nonpayable",
      "type": "function"
    },
    {
      "inputs": [
        {
          "internalType": "address",
          "name": "_juror",
          "type": "address"
        }
      ],
      "name": "warnJuror",
      "outputs": [],
      "stateMutability": "nonpayable",
      "type": "function"
    }
  ],
  "bytecode": "0x608060405234801561001057600080fd5b5033600073ffffffffffffffffffffffffffffffffffffffff168173ffffffffffffffffffffffffffffffffffffffff16036100845760006040517f1e4fbdf700000000000000000000000000000000000000000000000000000000815260040161007b919061019e565b60405180910390fd5b6100938161009960201b60201c565b506101b9565b60008060009054906101000a900473ffffffffffffffffffffffffffffffffffffffff169050816000806101000a81548173ffffffffffffffffffffffffffffffffffffffff021916908373ffffffffffffffffffffffffffffffffffffffff1602179055508173ffffffffffffffffffffffffffffffffffffffff168173ffffffffffffffffffffffffffffffffffffffff167f8be0079c531659141344cd1fd0a4f28419497f9722a3daafe3b4186f6b6457e060405160405180910390a35050565b600073ffffffffffffffffffffffffffffffffffffffff82169050919050565b60006101888261015d565b9050919050565b6101988161017d565b82525050565b60006020820190506101b3600083018461018f565b92915050565b611e7e806101c86000396000f3fe608060405234801561001057600080fd5b50600436106101005760003560e01c80638e230e6f11610097578063dca5f6b011610066578063dca5f6b014610289578063f2fde38b146102bf578063f491574c146102db578063f6cd25f01461030b57610100565b80638e230e6f146101dd578063c3c5a5471461020d578063c5a67fbc1461023d578063d4155d1f1461025957610100565b80636358e2d5116100d35780636358e2d51461017b578063715018a61461019957806385c76678146101a35780638da5cb5b146101bf57610100565b806304e8940d146101055780632b78a81e146101235780633e61bdd41461013f5780636058e6851461015d575b600080fd5b61010d610327565b60405161011a91906115d6565b60405180910390f35b61013d60048036038101906101389190611654565b61032c565b005b610147610534565b60405161015491906115d6565b60405180910390f35b61016561053a565b604051610172919061173f565b60405180910390f35b6101836107ea565b604051610190919061173f565b60405180910390f35b6101a1610878565b005b6101bd60048036038101906101b89190611654565b61088c565b005b6101c7610c44565b6040516101d49190611770565b60405180910390f35b6101f760048036038101906101f291906117b7565b610c6d565b6040516102049190611770565b60405180910390f35b61022760048036038101906102229190611654565b610cac565b60405161023491906117ff565b60405180910390f35b61025760048036038101906102529190611846565b610ccc565b005b610273600480360381019061026e9190611654565b610e72565b60405161028091906119ad565b60405180910390f35b6102a3600480360381019061029e9190611654565b61101c565b6040516102b697969594939291906119d7565b60405180910390f35b6102d960048036038101906102d49190611654565b61108b565b005b6102f560048036038101906102f09190611654565b611111565b60405161030291906117ff565b60405180910390f35b61032560048036038101906103209190611654565b6111e6565b005b606481565b610334611405565b80600460008273ffffffffffffffffffffffffffffffffffffffff1673ffffffffffffffffffffffffffffffffffffffff16815260200190815260200160002060009054906101000a900460ff166103c1576040517f08c379a00000000000000000000000000000000000000000000000000000000081526004016103b890611aa3565b60405180910390fd5b600060028111156103d5576103d46118a8565b5b600360008473ffffffffffffffffffffffffffffffffffffffff1673ffffffffffffffffffffffffffffffffffffffff16815260200190815260200160002060050160009054906101000a900460ff166002811115610437576104366118a8565b5b14610477576040517f08c379a000000000000000000000000000000000000000000000000000000000815260040161046e90611b0f565b60405180910390fd5b6001600360008473ffffffffffffffffffffffffffffffffffffffff1673ffffffffffffffffffffffffffffffffffffffff16815260200190815260200160002060050160006101000a81548160ff021916908360028111156104dd576104dc6118a8565b5b02179055508173ffffffffffffffffffffffffffffffffffffffff167fbc2e6e8ed5ee6cd5b8c381ff22c25147d67ac9bb609bec19cc9e158533a141664260405161052891906115d6565b60405180910390a25050565b60015481565b60606000805b6002805490508110156106225760006002811115610561576105606118a8565b5b600360006002848154811061057957610578611b2f565b5b9060005260206000200160009054906101000a900473ffffffffffffffffffffffffffffffffffffffff1673ffffffffffffffffffffffffffffffffffffffff1673ffffffffffffffffffffffffffffffffffffffff16815260200190815260200160002060050160009054906101000a900460ff166002811115610601576106006118a8565b5b0361061557818061061190611b8d565b9250505b8080600101915050610540565b5060008167ffffffffffffffff81111561063f5761063e611bd5565b5b60405190808252806020026020018201604052801561066d5781602001602082028036833780820191505090505b5090506000805b6002805490508110156107e05760006002811115610695576106946118a8565b5b60036000600284815481106106ad576106ac611b2f565b5b9060005260206000200160009054906101000a900473ffffffffffffffffffffffffffffffffffffffff1673ffffffffffffffffffffffffffffffffffffffff1673ffffffffffffffffffffffffffffffffffffffff16815260200190815260200160002060050160009054906101000a900460ff166002811115610735576107346118a8565b5b036107d3576002818154811061074e5761074d611b2f565b5b9060005260206000200160009054906101000a900473ffffffffffffffffffffffffffffffffffffffff1683838061078590611b8d565b94508151811061079857610797611b2f565b5b602002602001019073ffffffffffffffffffffffffffffffffffffffff16908173ffffffffffffffffffffffffffffffffffffffff16815250505b8080600101915050610674565b5081935050505090565b6060600280548060200260200160405190810160405280929190818152602001828054801561086e57602002820191906000526020600020905b8160009054906101000a900473ffffffffffffffffffffffffffffffffffffffff1673ffffffffffffffffffffffffffffffffffffffff1681526020019060010190808311610824575b5050505050905090565b610880611405565b61088a600061148c565b565b610894611405565b600073ffffffffffffffffffffffffffffffffffffffff168173ffffffffffffffffffffffffffffffffffffffff1603610903576040517f08c379a00000000000000000000000000000000000000000000000000000000081526004016108fa90611c50565b60405180910390fd5b600460008273ffffffffffffffffffffffffffffffffffffffff1673ffffffffffffffffffffffffffffffffffffffff16815260200190815260200160002060009054906101000a900460ff1615610990576040517f08c379a000000000000000000000000000000000000000000000000000000000815260040161098790611cbc565b60405180910390fd5b6064600154106109d5576040517f08c379a00000000000000000000000000000000000000000000000000000000081526004016109cc90611d28565b60405180910390fd5b6040518060e001604052808273ffffffffffffffffffffffffffffffffffffffff1681526020016000815260200160008152602001600081526020016000815260200160006002811115610a2c57610a2b6118a8565b5b815260200142815250600360008373ffffffffffffffffffffffffffffffffffffffff1673ffffffffffffffffffffffffffffffffffffffff16815260200190815260200160002060008201518160000160006101000a81548173ffffffffffffffffffffffffffffffffffffffff021916908373ffffffffffffffffffffffffffffffffffffffff1602179055506020820151816001015560408201518160020155606082015181600301556080820151816004015560a08201518160050160006101000a81548160ff02191690836002811115610b0e57610b0d6118a8565b5b021790555060c082015181600601559050506001600460008373ffffffffffffffffffffffffffffffffffffffff1673ffffffffffffffffffffffffffffffffffffffff16815260200190815260200160002060006101000a81548160ff0219169083151502179055506002819080600181540180825580915050600190039060005260206000200160009091909190916101000a81548173ffffffffffffffffffffffffffffffffffffffff021916908373ffffffffffffffffffffffffffffffffffffffff16021790555060016000815480929190610bee90611b8d565b91905055508073ffffffffffffffffffffffffffffffffffffffff167f366404936c87a0d64a5201b72185d13f4e45e8d5d6892a10d22e251152c1e39142604051610c3991906115d6565b60405180910390a250565b60008060009054906101000a900473ffffffffffffffffffffffffffffffffffffffff16905090565b60028181548110610c7d57600080fd5b906000526020600020016000915054906101000a900473ffffffffffffffffffffffffffffffffffffffff1681565b60046020528060005260406000206000915054906101000a900460ff1681565b610cd4611405565b82600460008273ffffffffffffffffffffffffffffffffffffffff1673ffffffffffffffffffffffffffffffffffffffff16815260200190815260200160002060009054906101000a900460ff16610d61576040517f08c379a0000000000000000000000000000000000000000000000000000000008152600401610d5890611aa3565b60405180910390fd5b6000600360008673ffffffffffffffffffffffffffffffffffffffff1673ffffffffffffffffffffffffffffffffffffffff1681526020019081526020016000209050806001016000815480929190610db990611b8d565b91905055508315610de357806002016000815480929190610dd990611b8d565b9190505550610dfe565b806003016000815480929190610df890611b8d565b91905055505b82816004016000828254610e129190611d48565b925050819055508473ffffffffffffffffffffffffffffffffffffffff167fa8a28a0b0bb7c52fef6500deeea4a5edf4598a55e5b92c1118dc6b01df3b0128858542604051610e6393929190611d7c565b60405180910390a25050505050565b610e7a611558565b81600460008273ffffffffffffffffffffffffffffffffffffffff1673ffffffffffffffffffffffffffffffffffffffff16815260200190815260200160002060009054906101000a900460ff16610f07576040517f08c379a0000000000000000000000000000000000000000000000000000000008152600401610efe90611aa3565b60405180910390fd5b600360008473ffffffffffffffffffffffffffffffffffffffff1673ffffffffffffffffffffffffffffffffffffffff1681526020019081526020016000206040518060e00160405290816000820160009054906101000a900473ffffffffffffffffffffffffffffffffffffffff1673ffffffffffffffffffffffffffffffffffffffff1673ffffffffffffffffffffffffffffffffffffffff168152602001600182015481526020016002820154815260200160038201548152602001600482015481526020016005820160009054906101000a900460ff166002811115610ff457610ff36118a8565b5b6002811115611006576110056118a8565b5b8152602001600682015481525050915050919050565b60036020528060005260406000206000915090508060000160009054906101000a900473ffffffffffffffffffffffffffffffffffffffff16908060010154908060020154908060030154908060040154908060050160009054906101000a900460ff16908060060154905087565b611093611405565b600073ffffffffffffffffffffffffffffffffffffffff168173ffffffffffffffffffffffffffffffffffffffff16036111055760006040517f1e4fbdf70000000000000000000000000000000000000000000000000000000081526004016110fc9190611770565b60405180910390fd5b61110e8161148c565b50565b6000600460008373ffffffffffffffffffffffffffffffffffffffff1673ffffffffffffffffffffffffffffffffffffffff16815260200190815260200160002060009054906101000a900460ff1680156111df57506000600281111561117b5761117a6118a8565b5b600360008473ffffffffffffffffffffffffffffffffffffffff1673ffffffffffffffffffffffffffffffffffffffff16815260200190815260200160002060050160009054906101000a900460ff1660028111156111dd576111dc6118a8565b5b145b9050919050565b6111ee611405565b80600460008273ffffffffffffffffffffffffffffffffffffffff1673ffffffffffffffffffffffffffffffffffffffff16815260200190815260200160002060009054906101000a900460ff1661127b576040517f08c379a000000000000000000000000000000000000000000000000000000000815260040161127290611aa3565b60405180910390fd5b60028081111561128e5761128d6118a8565b5b600360008473ffffffffffffffffffffffffffffffffffffffff1673ffffffffffffffffffffffffffffffffffffffff16815260200190815260200160002060050160009054906101000a900460ff1660028111156112f0576112ef6118a8565b5b03611330576040517f08c379a000000000000000000000000000000000000000000000000000000000815260040161132790611dff565b60405180910390fd5b6002600360008473ffffffffffffffffffffffffffffffffffffffff1673ffffffffffffffffffffffffffffffffffffffff16815260200190815260200160002060050160006101000a81548160ff02191690836002811115611396576113956118a8565b5b0217905550600160008154809291906113ae90611e1f565b91905055508173ffffffffffffffffffffffffffffffffffffffff167f35f5fbc23d76842258b402dff5bdd16962b4c68a54d4e0acd4bcac5fc00c342a426040516113f991906115d6565b60405180910390a25050565b61140d611550565b73ffffffffffffffffffffffffffffffffffffffff1661142b610c44565b73ffffffffffffffffffffffffffffffffffffffff161461148a5761144e611550565b6040517f118cdaa70000000000000000000000000000000000000000000000000000000081526004016114819190611770565b60405180910390fd5b565b60008060009054906101000a900473ffffffffffffffffffffffffffffffffffffffff169050816000806101000a81548173ffffffffffffffffffffffffffffffffffffffff021916908373ffffffffffffffffffffffffffffffffffffffff1602179055508173ffffffffffffffffffffffffffffffffffffffff168173ffffffffffffffffffffffffffffffffffffffff167f8be0079c531659141344cd1fd0a4f28419497f9722a3daafe3b4186f6b6457e060405160405180910390a35050565b600033905090565b6040518060e00160405280600073ffffffffffffffffffffffffffffffffffffffff16815260200160008152602001600081526020016000815260200160008152602001600060028111156115b0576115af6118a8565b5b8152602001600081525090565b6000819050919050565b6115d0816115bd565b82525050565b60006020820190506115eb60008301846115c7565b92915050565b600080fd5b600073ffffffffffffffffffffffffffffffffffffffff82169050919050565b6000611621826115f6565b9050919050565b61163181611616565b811461163c57600080fd5b50565b60008135905061164e81611628565b92915050565b60006020828403121561166a576116696115f1565b5b60006116788482850161163f565b91505092915050565b600081519050919050565b600082825260208201905092915050565b6000819050602082019050919050565b6116b681611616565b82525050565b60006116c883836116ad565b60208301905092915050565b6000602082019050919050565b60006116ec82611681565b6116f6818561168c565b93506117018361169d565b8060005b8381101561173257815161171988826116bc565b9750611724836116d4565b925050600181019050611705565b5085935050505092915050565b6000602082019050818103600083015261175981846116e1565b905092915050565b61176a81611616565b82525050565b60006020820190506117856000830184611761565b92915050565b611794816115bd565b811461179f57600080fd5b50565b6000813590506117b18161178b565b92915050565b6000602082840312156117cd576117cc6115f1565b5b60006117db848285016117a2565b91505092915050565b60008115159050919050565b6117f9816117e4565b82525050565b600060208201905061181460008301846117f0565b92915050565b611823816117e4565b811461182e57600080fd5b50565b6000813590506118408161181a565b92915050565b60008060006060848603121561185f5761185e6115f1565b5b600061186d8682870161163f565b935050602061187e86828701611831565b925050604061188f868287016117a2565b9150509250925092565b6118a2816115bd565b82525050565b7f4e487b7100000000000000000000000000000000000000000000000000000000600052602160045260246000fd5b600381106118e8576118e76118a8565b5b50565b60008190506118f9826118d7565b919050565b6000611909826118eb565b9050919050565b611919816118fe565b82525050565b60e08201600082015161193560008501826116ad565b5060208201516119486020850182611899565b50604082015161195b6040850182611899565b50606082015161196e6060850182611899565b5060808201516119816080850182611899565b5060a082015161199460a0850182611910565b5060c08201516119a760c0850182611899565b50505050565b600060e0820190506119c2600083018461191f565b92915050565b6119d1816118fe565b82525050565b600060e0820190506119ec600083018a611761565b6119f960208301896115c7565b611a0660408301886115c7565b611a1360608301876115c7565b611a2060808301866115c7565b611a2d60a08301856119c8565b611a3a60c08301846115c7565b98975050505050505050565b600082825260208201905092915050565b7f4a75726f72206e6f742072656769737465726564000000000000000000000000600082015250565b6000611a8d601483611a46565b9150611a9882611a57565b602082019050919050565b60006020820190508181036000830152611abc81611a80565b9050919050565b7f4a75726f72206e6f742061637469766500000000000000000000000000000000600082015250565b6000611af9601083611a46565b9150611b0482611ac3565b602082019050919050565b60006020820190508181036000830152611b2881611aec565b9050919050565b7f4e487b7100000000000000000000000000000000000000000000000000000000600052603260045260246000fd5b7f4e487b7100000000000000000000000000000000000000000000000000000000600052601160045260246000fd5b6000611b98826115bd565b91507fffffffffffffffffffffffffffffffffffffffffffffffffffffffffffffffff8203611bca57611bc9611b5e565b5b600182019050919050565b7f4e487b7100000000000000000000000000000000000000000000000000000000600052604160045260246000fd5b7f496e76616c696420616464726573730000000000000000000000000000000000600082015250565b6000611c3a600f83611a46565b9150611c4582611c04565b602082019050919050565b60006020820190508181036000830152611c6981611c2d565b9050919050565b7f416c726561647920726567697374657265640000000000000000000000000000600082015250565b6000611ca6601283611a46565b9150611cb182611c70565b602082019050919050565b60006020820190508181036000830152611cd581611c99565b9050919050565b7f4d6178696d756d206a75726f7273207265616368656400000000000000000000600082015250565b6000611d12601683611a46565b9150611d1d82611cdc565b602082019050919050565b60006020820190508181036000830152611d4181611d05565b9050919050565b6000611d53826115bd565b9150611d5e836115bd565b9250828201905080821115611d7657611d75611b5e565b5b92915050565b6000606082019050611d9160008301866117f0565b611d9e60208301856115c7565b611dab60408301846115c7565b949350505050565b7f416c72656164792072656d6f7665640000000000000000000000000000000000600082015250565b6000611de9600f83611a46565b9150611df482611db3565b602082019050919050565b60006020820190508181036000830152611e1881611ddc565b9050919050565b6000611e2a826115bd565b915060008203611e3d57611e3c611b5e565b5b60018203905091905056fea26469706673582212209719be7b6e49a897345eb1c7e98e5ad0693843b7ca73f1d8235399e3805978cd64736f6c634300081c0033",
  "linkReferences": {},
  "deployedLinkReferences": {}
}