{
  "_format": "hh-sol-artifact-1",
  "contractName": "DisputeManager",
  "sourceName": "contracts/DisputeManager.sol",
  "abi": [
    {
      "inputs": [
        {
          "internalType": "address",
          "name": "_usdc",
          "type": "address"
        },
        {
          "internalType": "address",
          "name": "_courtRegistry",
          "type": "address"
        },
        {
          "internalType": "address",
          "name": "_predictionMarket",
          "type": "address"
        },
        {
          "internalType": "address",
          "name": "_treasury",
          "type": "address"
        }
      ],
      "stateMutability": "nonpayable",
      "type": "constructor"
    },
    {
      "inputs": [
        {
          "internalType": "address",
          "name": "owner",
          "type": "address"
        }
      ],
      "name": "OwnableInvalidOwner",
      "type": "error"
    },
    {
      "inputs": [
        {
          "internalType": "address",
          "name": "account",
          "type": "address"
        }
      ],
      "name": "OwnableUnauthorizedAccount",
      "type": "error"
    },
    {
      "inputs": [],
      "name": "ReentrancyGuardReentrantCall",
      "type": "error"
    },
    {
      "anonymous": false,
      "inputs": [
        {
          "indexed": true,
          "internalType": "uint256",
          "name": "disputeId",
          "type": "uint256"
        },
        {
          "indexed": false,
          "internalType": "bool",
          "name": "finalResult",
          "type": "bool"
        },
        {
          "indexed": false,
          "internalType": "uint256",
          "name": "timestamp",
          "type": "uint256"
        }
      ],
      "name": "DisputeResolved",
      "type": "event"
    },
    {
      "anonymous": false,
      "inputs": [
        {
          "indexed": true,
          "internalType": "uint256",
          "name": "disputeId",
          "type": "uint256"
        },
        {
          "indexed": false,
          "internalType": "uint256",
          "name": "jurorCount",
          "type": "uint256"
        },
        {
          "indexed": false,
          "internalType": "uint256",
          "name": "timestamp",
          "type": "uint256"
        }
      ],
      "name": "JurorsSelected",
      "type": "event"
    },
    {
      "anonymous": false,
      "inputs": [
        {
          "indexed": true,
          "internalType": "address",
          "name": "previousOwner",
          "type": "address"
        },
        {
          "indexed": true,
          "internalType": "address",
          "name": "newOwner",
          "type": "address"
        }
      ],
      "name": "OwnershipTransferred",
      "type": "event"
    },
    {
      "anonymous": false,
      "inputs": [
        {
          "indexed": true,
          "internalType": "uint256",
          "name": "proposalId",
          "type": "uint256"
        },
        {
          "indexed": false,
          "internalType": "bool",
          "name": "result",
          "type": "bool"
        },
        {
          "indexed": false,
          "internalType": "uint256",
          "name": "timestamp",
          "type": "uint256"
        }
      ],
      "name": "ProposalAccepted",
      "type": "event"
    },
    {
      "anonymous": false,
      "inputs": [
        {
          "indexed": true,
          "internalType": "uint256",
          "name": "disputeId",
          "type": "uint256"
        },
        {
          "indexed": true,
          "internalType": "uint256",
          "name": "proposalId",
          "type": "uint256"
        },
        {
          "indexed": false,
          "internalType": "address",
          "name": "disputer",
          "type": "address"
        },
        {
          "indexed": false,
          "internalType": "uint256",
          "name": "timestamp",
          "type": "uint256"
        }
      ],
      "name": "ResultDisputed",
      "type": "event"
    },
    {
      "anonymous": false,
      "inputs": [
        {
          "indexed": true,
          "internalType": "uint256",
          "name": "proposalId",
          "type": "uint256"
        },
        {
          "indexed": true,
          "internalType": "uint256",
          "name": "marketId",
          "type": "uint256"
        },
        {
          "indexed": false,
          "internalType": "bool",
          "name": "result",
          "type": "bool"
        },
        {
          "indexed": false,
          "internalType": "address",
          "name": "proposer",
          "type": "address"
        },
        {
          "indexed": false,
          "internalType": "uint256",
          "name": "timestamp",
          "type": "uint256"
        }
      ],
      "name": "ResultProposed",
      "type": "event"
    },
    {
      "anonymous": false,
      "inputs": [
        {
          "indexed": true,
          "internalType": "address",
          "name": "juror",
          "type": "address"
        },
        {
          "indexed": false,
          "internalType": "uint256",
          "name": "amount",
          "type": "uint256"
        },
        {
          "indexed": false,
          "internalType": "uint256",
          "name": "timestamp",
          "type": "uint256"
        }
      ],
      "name": "RewardDistributed",
      "type": "event"
    },
    {
      "anonymous": false,
      "inputs": [
        {
          "indexed": true,
          "internalType": "uint256",
          "name": "disputeId",
          "type": "uint256"
        },
        {
          "indexed": true,
          "internalType": "address",
          "name": "juror",
          "type": "address"
        },
        {
          "indexed": false,
          "internalType": "uint256",
          "name": "timestamp",
          "type": "uint256"
        }
      ],
      "name": "VoteCommitted",
      "type": "event"
    },
    {
      "anonymous": false,
      "inputs": [
        {
          "indexed": true,
          "internalType": "uint256",
          "name": "disputeId",
          "type": "uint256"
        },
        {
          "indexed": true,
          "internalType": "address",
          "name": "juror",
          "type": "address"
        },
        {
          "indexed": false,
          "internalType": "bool",
          "name": "vote",
          "type": "bool"
        },
        {
          "indexed": false,
          "internalType": "uint256",
          "name": "timestamp",
          "type": "uint256"
        }
      ],
      "name": "VoteRevealed",
      "type": "event"
    },
    {
      "inputs": [],
      "name": "DISPUTE_BOND",
      "outputs": [
        {
          "internalType": "uint256",
          "name": "",
          "type": "uint256"
        }
      ],
      "stateMutability": "view",
      "type": "function"
    },
    {
      "inputs": [],
      "name": "JURORS_PER_CASE",
      "outputs": [
        {
          "internalType": "uint256",
          "name": "",
          "type": "uint256"
        }
      ],
      "stateMutability": "view",
      "type": "function"
    },
    {
      "inputs": [],
      "name": "MAJORITY_VOTER_REWARD_PERCENT",
      "outputs": [
        {
          "internalType": "uint256",
          "name": "",
          "type": "uint256"
        }
      ],
      "stateMutability": "view",
      "type": "function"
    },
    {
      "inputs": [],
      "name": "MIN_VOTES_REQUIRED",
      "outputs": [
        {
          "internalType": "uint256",
          "name": "",
          "type": "uint256"
        }
      ],
      "stateMutability": "view",
      "type": "function"
    },
    {
      "inputs": [],
      "name": "POLITICS_DISPUTE_WINDOW",
      "outputs": [
        {
          "internalType": "uint256",
          "name": "",
          "type": "uint256"
        }
      ],
      "stateMutability": "view",
      "type": "function"
    },
    {
      "inputs": [],
      "name": "PROPOSAL_BOND",
      "outputs": [
        {
          "internalType": "uint256",
          "name": "",
          "type": "uint256"
        }
      ],
      "stateMutability": "view",
      "type": "function"
    },
    {
      "inputs": [],
      "name": "SPORTS_DISPUTE_WINDOW",
      "outputs": [
        {
          "internalType": "uint256",
          "name": "",
          "type": "uint256"
        }
      ],
      "stateMutability": "view",
      "type": "function"
    },
    {
      "inputs": [],
      "name": "TREASURY_PERCENT",
      "outputs": [
        {
          "internalType": "uint256",
          "name": "",
          "type": "uint256"
        }
      ],
      "stateMutability": "view",
      "type": "function"
    },
    {
      "inputs": [],
      "name": "VOTING_EXTENSION",
      "outputs": [
        {
          "internalType": "uint256",
          "name": "",
          "type": "uint256"
        }
      ],
      "stateMutability": "view",
      "type": "function"
    },
    {
      "inputs": [],
      "name": "VOTING_WINDOW",
      "outputs": [
        {
          "internalType": "uint256",
          "name": "",
          "type": "uint256"
        }
      ],
      "stateMutability": "view",
      "type": "function"
    },
    {
      "inputs": [],
      "name": "WINNING_SIDE_PERCENT",
      "outputs": [
        {
          "internalType": "uint256",
          "name": "",
          "type": "uint256"
        }
      ],
      "stateMutability": "view",
      "type": "function"
    },
    {
      "inputs": [
        {
          "internalType": "uint256",
          "name": "_proposalId",
          "type": "uint256"
        }
      ],
      "name": "acceptProposal",
      "outputs": [],
      "stateMutability": "nonpayable",
      "type": "function"
    },
    {
      "inputs": [
        {
          "internalType": "uint256",
          "name": "_disputeId",
          "type": "uint256"
        },
        {
          "internalType": "bytes32",
          "name": "_commitHash",
          "type": "bytes32"
        }
      ],
      "name": "commitVote",
      "outputs": [],
      "stateMutability": "nonpayable",
      "type": "function"
    },
    {
      "inputs": [],
      "name": "courtRegistry",
      "outputs": [
        {
          "internalType": "contract ICourtRegistry",
          "name": "",
          "type": "address"
        }
      ],
      "stateMutability": "view",
      "type": "function"
    },
    {
      "inputs": [],
      "name": "disputeCount",
      "outputs": [
        {
          "internalType": "uint256",
          "name": "",
          "type": "uint256"
        }
      ],
      "stateMutability": "view",
      "type": "function"
    },
    {
      "inputs": [
        {
          "internalType": "uint256",
          "name": "_proposalId",
          "type": "uint256"
        }
      ],
      "name": "disputeResult",
      "outputs": [],
      "stateMutability": "nonpayable",
      "type": "function"
    },
    {
      "inputs": [
        {
          "internalType": "uint256",
          "name": "",
          "type": "uint256"
        }
      ],
      "name": "disputes",
      "outputs": [
        {
          "internalType": "uint256",
          "name": "proposalId",
          "type": "uint256"
        },
        {
          "internalType": "address",
          "name": "disputer",
          "type": "address"
        },
        {
          "internalType": "uint256",
          "name": "disputeTime",
          "type": "uint256"
        },
        {
          "internalType": "uint256",
          "name": "votingWindowEnd",
          "type": "uint256"
        },
        {
          "internalType": "uint256",
          "name": "bond",
          "type": "uint256"
        },
        {
          "internalType": "uint256",
          "name": "yesVotes",
          "type": "uint256"
        },
        {
          "internalType": "uint256",
          "name": "noVotes",
          "type": "uint256"
        },
        {
          "internalType": "bool",
          "name": "finalResult",
          "type": "bool"
        },
        {
          "internalType": "bool",
          "name": "resolved",
          "type": "bool"
        }
      ],
      "stateMutability": "view",
      "type": "function"
    },
    {
      "inputs": [
        {
          "internalType": "uint256",
          "name": "_disputeId",
          "type": "uint256"
        }
      ],
      "name": "extendVotingWindow",
      "outputs": [],
      "stateMutability": "nonpayable",
      "type": "function"
    },
    {
      "inputs": [
        {
          "internalType": "bool",
          "name": "_vote",
          "type": "bool"
        },
        {
          "internalType": "bytes32",
          "name": "_secret",
          "type": "bytes32"
        },
        {
          "internalType": "address",
          "name": "_juror",
          "type": "address"
        }
      ],
      "name": "generateCommitHash",
      "outputs": [
        {
          "internalType": "bytes32",
          "name": "",
          "type": "bytes32"
        }
      ],
      "stateMutability": "pure",
      "type": "function"
    },
    {
      "inputs": [
        {
          "internalType": "uint256",
          "name": "_disputeId",
          "type": "uint256"
        }
      ],
      "name": "getSelectedJurors",
      "outputs": [
        {
          "internalType": "address[]",
          "name": "",
          "type": "address[]"
        }
      ],
      "stateMutability": "view",
      "type": "function"
    },
    {
      "inputs": [
        {
          "internalType": "uint256",
          "name": "_disputeId",
          "type": "uint256"
        },
        {
          "internalType": "address",
          "name": "_juror",
          "type": "address"
        }
      ],
      "name": "getVote",
      "outputs": [
        {
          "components": [
            {
              "internalType": "bytes32",
              "name": "commitHash",
              "type": "bytes32"
            },
            {
              "internalType": "bool",
              "name": "revealed",
              "type": "bool"
            },
            {
              "internalType": "bool",
              "name": "vote",
              "type": "bool"
            },
            {
              "internalType": "bool",
              "name": "committed",
              "type": "bool"
            }
          ],
          "internalType": "struct DisputeManager.Vote",
          "name": "",
          "type": "tuple"
        }
      ],
      "stateMutability": "view",
      "type": "function"
    },
    {
      "inputs": [
        {
          "internalType": "uint256",
          "name": "",
          "type": "uint256"
        },
        {
          "internalType": "address",
          "name": "",
          "type": "address"
        }
      ],
      "name": "isSelectedJuror",
      "outputs": [
        {
          "internalType": "bool",
          "name": "",
          "type": "bool"
        }
      ],
      "stateMutability": "view",
      "type": "function"
    },
    {
      "inputs": [
        {
          "internalType": "uint256",
          "name": "",
          "type": "uint256"
        }
      ],
      "name": "marketProposal",
      "outputs": [
        {
          "internalType": "uint256",
          "name": "",
          "type": "uint256"
        }
      ],
      "stateMutability": "view",
      "type": "function"
    },
    {
      "inputs": [],
      "name": "owner",
      "outputs": [
        {
          "internalType": "address",
          "name": "",
          "type": "address"
        }
      ],
      "stateMutability": "view",
      "type": "function"
    },
    {
      "inputs": [],
      "name": "predictionMarket",
      "outputs": [
        {
          "internalType": "contract IPredictionMarket",
          "name": "",
          "type": "address"
        }
      ],
      "stateMutability": "view",
      "type": "function"
    },
    {
      "inputs": [],
      "name": "proposalCount",
      "outputs": [
        {
          "internalType": "uint256",
          "name": "",
          "type": "uint256"
        }
      ],
      "stateMutability": "view",
      "type": "function"
    },
    {
      "inputs": [
        {
          "internalType": "uint256",
          "name": "",
          "type": "uint256"
        }
      ],
      "name": "proposals",
      "outputs": [
        {
          "internalType": "uint256",
          "name": "marketId",
          "type": "uint256"
        },
        {
          "internalType": "address",
          "name": "proposer",
          "type": "address"
        },
        {
          "internalType": "bool",
          "name": "proposedResult",
          "type": "bool"
        },
        {
          "internalType": "uint256",
          "name": "proposalTime",
          "type": "uint256"
        },
        {
          "internalType": "uint256",
          "name": "disputeWindowEnd",
          "type": "uint256"
        },
        {
          "internalType": "uint256",
          "name": "bond",
          "type": "uint256"
        },
        {
          "internalType": "enum DisputeManager.DisputeState",
          "name": "state",
          "type": "uint8"
        },
        {
          "internalType": "enum DisputeManager.MarketCategory",
          "name": "category",
          "type": "uint8"
        }
      ],
      "stateMutability": "view",
      "type": "function"
    },
    {
      "inputs": [
        {
          "internalType": "uint256",
          "name": "_marketId",
          "type": "uint256"
        },
        {
          "internalType": "bool",
          "name": "_result",
          "type": "bool"
        },
        {
          "internalType": "enum DisputeManager.MarketCategory",
          "name": "_category",
          "type": "uint8"
        }
      ],
      "name": "proposeResult",
      "outputs": [],
      "stateMutability": "nonpayable",
      "type": "function"
    },
    {
      "inputs": [],
      "name": "renounceOwnership",
      "outputs": [],
      "stateMutability": "nonpayable",
      "type": "function"
    },
    {
      "inputs": [
        {
          "internalType": "uint256",
          "name": "_disputeId",
          "type": "uint256"
        }
      ],
      "name": "resolveDispute",
      "outputs": [],
      "stateMutability": "nonpayable",
      "type": "function"
    },
    {
      "inputs": [
        {
          "internalType": "uint256",
          "name": "_disputeId",
          "type": "uint256"
        },
        {
          "internalType": "bool",
          "name": "_vote",
          "type": "bool"
        },
        {
          "internalType": "bytes32",
          "name": "_secret",
          "type": "bytes32"
        }
      ],
      "name": "revealVote",
      "outputs": [],
      "stateMutability": "nonpayable",
      "type": "function"
    },
    {
      "inputs": [
        {
          "internalType": "uint256",
          "name": "",
          "type": "uint256"
        },
        {
          "internalType": "uint256",
          "name": "",
          "type": "uint256"
        }
      ],
      "name": "selectedJurors",
      "outputs": [
        {
          "internalType": "address",
          "name": "",
          "type": "address"
        }
      ],
      "stateMutability": "view",
      "type": "function"
    },
    {
      "inputs": [
        {
          "internalType": "address",
          "name": "newOwner",
          "type": "address"
        }
      ],
      "name": "transferOwnership",
      "outputs": [],
      "stateMutability": "nonpayable",
      "type": "function"
    },
    {
      "inputs": [],
      "name": "treasury",
      "outputs": [
        {
          "internalType": "address",
          "name": "",
          "type": "address"
        }
      ],
      "stateMutability": "view",
      "type": "function"
    },
    {
      "inputs": [],
      "name": "usdc",
      "outputs": [
        {
          "internalType": "contract IERC20",
          "name": "",
          "type": "address"
        }
      ],
      "stateMutability": "view",
      "type": "function"
    },
    {
      "inputs": [
        {
          "internalType": "uint256",
          "name": "",
          "type": "uint256"
        },
        {
          "internalType": "address",
          "name": "",
          "type": "address"
        }
      ],
      "name": "votes",
      "outputs": [
        {
          "internalType": "bytes32",
          "name": "commitHash",
          "type": "bytes32"
        },
        {
          "internalType": "bool",
          "name": "revealed",
          "type": "bool"
        },
        {
          "internalType": "bool",
          "name": "vote",
          "type": "bool"
        },
        {
          "internalType": "bool",
          "name": "committed",
          "type": "bool"
        }
      ],
      "stateMutability": "view",
      "type": "function"
    }
  ],
  "bytecode": "0x608060405234801561001057600080fd5b5060405161497838038061497883398181016040528101906100329190610343565b33600073ffffffffffffffffffffffffffffffffffffffff168173ffffffffffffffffffffffffffffffffffffffff16036100a55760006040517f1e4fbdf700000000000000000000000000000000000000000000000000000000815260040161009c91906103b9565b60405180910390fd5b6100b4816101e760201b60201c565b5060016100d36100c86102ab60201b60201c565b6102d660201b60201c565b6000018190555083600160006101000a81548173ffffffffffffffffffffffffffffffffffffffff021916908373ffffffffffffffffffffffffffffffffffffffff16021790555082600260006101000a81548173ffffffffffffffffffffffffffffffffffffffff021916908373ffffffffffffffffffffffffffffffffffffffff16021790555081600360006101000a81548173ffffffffffffffffffffffffffffffffffffffff021916908373ffffffffffffffffffffffffffffffffffffffff16021790555080600460006101000a81548173ffffffffffffffffffffffffffffffffffffffff021916908373ffffffffffffffffffffffffffffffffffffffff160217905550505050506103d4565b60008060009054906101000a900473ffffffffffffffffffffffffffffffffffffffff169050816000806101000a81548173ffffffffffffffffffffffffffffffffffffffff021916908373ffffffffffffffffffffffffffffffffffffffff1602179055508173ffffffffffffffffffffffffffffffffffffffff168173ffffffffffffffffffffffffffffffffffffffff167f8be0079c531659141344cd1fd0a4f28419497f9722a3daafe3b4186f6b6457e060405160405180910390a35050565b60007f9b779b17422d0df92223018b32b4d1fa46e071723d6817e2486d003becc55f0060001b905090565b6000819050919050565b600080fd5b600073ffffffffffffffffffffffffffffffffffffffff82169050919050565b6000610310826102e5565b9050919050565b61032081610305565b811461032b57600080fd5b50565b60008151905061033d81610317565b92915050565b6000806000806080858703121561035d5761035c6102e0565b5b600061036b8782880161032e565b945050602061037c8782880161032e565b935050604061038d8782880161032e565b925050606061039e8782880161032e565b91505092959194509250565b6103b381610305565b82525050565b60006020820190506103ce60008301846103aa565b92915050565b614595806103e36000396000f3fe608060405234801561001057600080fd5b506004361061021c5760003560e01c806399bef3e611610125578063d23254b4116100ad578063e73ac1351161007c578063e73ac13514610659578063e7efb4a014610677578063f2fde38b14610695578063facc092f146106b1578063fdd1f754146106cd5761021c565b8063d23254b4146105cc578063da35c664146105ff578063def114b61461061d578063df3b8ae31461063b5761021c565b8063bc3f931f116100f4578063bc3f931f14610514578063c2b7b86814610544578063c58b512914610560578063ccd9181d1461057e578063d02b3fba1461059c5761021c565b806399bef3e6146104a05780639da69180146104bc578063a28889e1146104d8578063af91ee39146104f65761021c565b80635b1dfdb8116101a85780637258416e116101775780637258416e146103e65780637e3681bd1461041657806383d5e726146104345780638998d70d146104525780638da5cb5b146104825761021c565b80635b1dfdb81461038457806360c5cc3a146103a257806361d027b3146103be578063715018a6146103dc5761021c565b80633a918794116101ef5780633a918794146102c45780633e413bee146102f45780633fe5c057146103125780634c68ae631461032e578063564a565d1461034c5761021c565b8063013cf08b14610221578063143192e914610258578063146dd389146102765780633173cd26146102a6575b600080fd5b61023b60048036038101906102369190612ea0565b6106e9565b60405161024f989796959493929190612ff7565b60405180910390f35b610260610778565b60405161026d9190613075565b60405180910390f35b610290600480360381019061028b919061311e565b61077f565b60405161029d9190613180565b60405180910390f35b6102ae6107b5565b6040516102bb9190613075565b60405180910390f35b6102de60048036038101906102d9919061319b565b6107bc565b6040516102eb91906131db565b60405180910390f35b6102fc61080a565b6040516103099190613255565b60405180910390f35b61032c60048036038101906103279190613295565b610830565b005b610336610b64565b6040516103439190613075565b60405180910390f35b61036660048036038101906103619190612ea0565b610b6c565b60405161037b999897969594939291906132e8565b60405180910390f35b61038c610bf4565b6040516103999190613075565b60405180910390f35b6103bc60048036038101906103b79190612ea0565b610bf9565b005b6103c6610efa565b6040516103d391906131db565b60405180910390f35b6103e4610f20565b005b61040060048036038101906103fb9190612ea0565b610f34565b60405161040d9190613075565b60405180910390f35b61041e610f4c565b60405161042b9190613075565b60405180910390f35b61043c610f54565b6040516104499190613075565b60405180910390f35b61046c60048036038101906104679190613375565b610f59565b60405161047991906133b5565b60405180910390f35b61048a610f88565b60405161049791906131db565b60405180910390f35b6104ba60048036038101906104b59190612ea0565b610fb1565b005b6104d660048036038101906104d191906133d0565b61109f565b005b6104e061134d565b6040516104ed9190613075565b60405180910390f35b6104fe611353565b60405161050b9190613075565b60405180910390f35b61052e60048036038101906105299190613375565b611359565b60405161053b9190613483565b60405180910390f35b61055e60048036038101906105599190612ea0565b61141f565b005b610568611a61565b6040516105759190613075565b60405180910390f35b610586611a66565b6040516105939190613075565b60405180910390f35b6105b660048036038101906105b19190612ea0565b611a6b565b6040516105c3919061355c565b60405180910390f35b6105e660048036038101906105e19190613375565b611b0c565b6040516105f6949392919061357e565b60405180910390f35b610607611b70565b6040516106149190613075565b60405180910390f35b610625611b76565b60405161063291906135e4565b60405180910390f35b610643611b9c565b6040516106509190613075565b60405180910390f35b610661611ba1565b60405161066e9190613075565b60405180910390f35b61067f611ba7565b60405161068c9190613620565b60405180910390f35b6106af60048036038101906106aa919061363b565b611bcd565b005b6106cb60048036038101906106c69190613668565b611c53565b005b6106e760048036038101906106e29190612ea0565b6120df565b005b60076020528060005260406000206000915090508060000154908060010160009054906101000a900473ffffffffffffffffffffffffffffffffffffffff16908060010160149054906101000a900460ff16908060020154908060030154908060040154908060050160009054906101000a900460ff16908060050160019054906101000a900460ff16905088565b6203f48081565b60008383836040516020016107969392919061376c565b6040516020818303038152906040528051906020012090509392505050565b6201518081565b600960205281600052604060002081815481106107d857600080fd5b906000526020600020016000915091509054906101000a900473ffffffffffffffffffffffffffffffffffffffff1681565b600160009054906101000a900473ffffffffffffffffffffffffffffffffffffffff1681565b610838612485565b600160009054906101000a900473ffffffffffffffffffffffffffffffffffffffff1673ffffffffffffffffffffffffffffffffffffffff166323b872dd3330633b9aca006040518463ffffffff1660e01b815260040161089b939291906137a9565b6020604051808303816000875af11580156108ba573d6000803e3d6000fd5b505050506040513d601f19601f820116820180604052508101906108de91906137f5565b61091d576040517f08c379a00000000000000000000000000000000000000000000000000000000081526004016109149061387f565b60405180910390fd5b60006001600381111561093357610932612f38565b5b82600381111561094657610945612f38565b5b1461095357611c20610958565b6203f4805b905060006005600081548092919061096f906138ce565b9190505590506040518061010001604052808681526020013373ffffffffffffffffffffffffffffffffffffffff168152602001851515815260200142815260200183426109bd9190613916565b8152602001633b9aca008152602001600060038111156109e0576109df612f38565b5b81526020018460038111156109f8576109f7612f38565b5b815250600760008381526020019081526020016000206000820151816000015560208201518160010160006101000a81548173ffffffffffffffffffffffffffffffffffffffff021916908373ffffffffffffffffffffffffffffffffffffffff16021790555060408201518160010160146101000a81548160ff021916908315150217905550606082015181600201556080820151816003015560a0820151816004015560c08201518160050160006101000a81548160ff02191690836003811115610ac857610ac7612f38565b5b021790555060e08201518160050160016101000a81548160ff02191690836003811115610af857610af7612f38565b5b021790555090505080600c60008781526020019081526020016000208190555084817f8fa7a06fedf7a752cf2b8fee0d191e6d5251e940211ab78d8707b5ff0ea75e58863342604051610b4d9392919061394a565b60405180910390a35050610b5f6124a8565b505050565b633b9aca0081565b60086020528060005260406000206000915090508060000154908060010160009054906101000a900473ffffffffffffffffffffffffffffffffffffffff16908060020154908060030154908060040154908060050154908060060154908060070160009054906101000a900460ff16908060070160019054906101000a900460ff16905089565b602881565b610c016124c3565b610c09612485565b600060076000838152602001908152602001600020905060006003811115610c3457610c33612f38565b5b8160050160009054906101000a900460ff166003811115610c5857610c57612f38565b5b14610c98576040517f08c379a0000000000000000000000000000000000000000000000000000000008152600401610c8f906139cd565b60405180910390fd5b80600301544211610cde576040517f08c379a0000000000000000000000000000000000000000000000000000000008152600401610cd590613a39565b60405180910390fd5b60038160050160006101000a81548160ff02191690836003811115610d0657610d05612f38565b5b0217905550600160009054906101000a900473ffffffffffffffffffffffffffffffffffffffff1673ffffffffffffffffffffffffffffffffffffffff1663a9059cbb8260010160009054906101000a900473ffffffffffffffffffffffffffffffffffffffff16633b9aca006040518363ffffffff1660e01b8152600401610d90929190613a59565b6020604051808303816000875af1158015610daf573d6000803e3d6000fd5b505050506040513d601f19601f82011682018060405250810190610dd391906137f5565b610e12576040517f08c379a0000000000000000000000000000000000000000000000000000000008152600401610e0990613ace565b60405180910390fd5b600360009054906101000a900473ffffffffffffffffffffffffffffffffffffffff1673ffffffffffffffffffffffffffffffffffffffff16636399d03d82600001546040518263ffffffff1660e01b8152600401610e719190613075565b600060405180830381600087803b158015610e8b57600080fd5b505af1158015610e9f573d6000803e3d6000fd5b50505050817fa8407af986846d883c831da6ba591e4db029351f0486e2f66430c663cd4f5fda8260010160149054906101000a900460ff1642604051610ee6929190613aee565b60405180910390a250610ef76124a8565b50565b600460009054906101000a900473ffffffffffffffffffffffffffffffffffffffff1681565b610f286124c3565b610f32600061254a565b565b600c6020528060005260406000206000915090505481565b633b9aca0081565b603281565b600b6020528160005260406000206020528060005260406000206000915091509054906101000a900460ff1681565b60008060009054906101000a900473ffffffffffffffffffffffffffffffffffffffff16905090565b610fb96124c3565b60006008600083815260200190815260200160002090508060070160019054906101000a900460ff1615611022576040517f08c379a000000000000000000000000000000000000000000000000000000000815260040161101990613b63565b60405180910390fd5b6000816006015482600501546110389190613916565b9050601e811061107d576040517f08c379a000000000000000000000000000000000000000000000000000000000815260040161107490613bcf565b60405180910390fd5b61a8c08260030160008282546110939190613916565b92505081905550505050565b600b600083815260200190815260200160002060003373ffffffffffffffffffffffffffffffffffffffff1673ffffffffffffffffffffffffffffffffffffffff16815260200190815260200160002060009054906101000a900460ff1661113c576040517f08c379a000000000000000000000000000000000000000000000000000000000815260040161113390613c3b565b60405180910390fd5b600a600083815260200190815260200160002060003373ffffffffffffffffffffffffffffffffffffffff1673ffffffffffffffffffffffffffffffffffffffff16815260200190815260200160002060010160029054906101000a900460ff16156111dd576040517f08c379a00000000000000000000000000000000000000000000000000000000081526004016111d490613ca7565b60405180910390fd5b6008600083815260200190815260200160002060030154421115611236576040517f08c379a000000000000000000000000000000000000000000000000000000000815260040161122d90613d13565b60405180910390fd5b80600a600084815260200190815260200160002060003373ffffffffffffffffffffffffffffffffffffffff1673ffffffffffffffffffffffffffffffffffffffff168152602001908152602001600020600001819055506001600a600084815260200190815260200160002060003373ffffffffffffffffffffffffffffffffffffffff1673ffffffffffffffffffffffffffffffffffffffff16815260200190815260200160002060010160026101000a81548160ff0219169083151502179055503373ffffffffffffffffffffffffffffffffffffffff16827fa7d611eafda2b476ada4179a81e9d948f0ef65b537c39379a145c40c3e9907ed426040516113419190613075565b60405180910390a35050565b60065481565b61a8c081565b611361612e25565b600a600084815260200190815260200160002060008373ffffffffffffffffffffffffffffffffffffffff1673ffffffffffffffffffffffffffffffffffffffff168152602001908152602001600020604051806080016040529081600082015481526020016001820160009054906101000a900460ff161515151581526020016001820160019054906101000a900460ff161515151581526020016001820160029054906101000a900460ff161515151581525050905092915050565b6114276124c3565b61142f612485565b60006008600083815260200190815260200160002090508060070160019054906101000a900460ff1615611498576040517f08c379a000000000000000000000000000000000000000000000000000000000815260040161148f90613b63565b60405180910390fd5b806003015442116114de576040517f08c379a00000000000000000000000000000000000000000000000000000000081526004016114d590613d7f565b60405180910390fd5b6000816006015482600501546114f49190613916565b9050601e81101561153a576040517f08c379a000000000000000000000000000000000000000000000000000000000815260040161153190613deb565b60405180910390fd5b600060076000846000015481526020019081526020016000209050600083600601548460050154119050808460070160006101000a81548160ff02191690831515021790555060018460070160016101000a81548160ff02191690831515021790555060038260050160006101000a81548160ff021916908360038111156115c5576115c4612f38565b5b021790555060008260010160149054906101000a900460ff1615158215151490506000633b9aca009050600060646032836116009190613e0b565b61160a9190613e7c565b90506000606460288461161d9190613e0b565b6116279190613e7c565b905060006064600a8561163a9190613e0b565b6116449190613e7c565b9050600160009054906101000a900473ffffffffffffffffffffffffffffffffffffffff1673ffffffffffffffffffffffffffffffffffffffff1663a9059cbb600460009054906101000a900473ffffffffffffffffffffffffffffffffffffffff16856040518363ffffffff1660e01b81526004016116c5929190613a59565b6020604051808303816000875af11580156116e4573d6000803e3d6000fd5b505050506040513d601f19601f8201168201806040525081019061170891906137f5565b611747576040517f08c379a000000000000000000000000000000000000000000000000000000000815260040161173e90613ef9565b60405180910390fd5b841561186457600160009054906101000a900473ffffffffffffffffffffffffffffffffffffffff1673ffffffffffffffffffffffffffffffffffffffff1663a9059cbb8860010160009054906101000a900473ffffffffffffffffffffffffffffffffffffffff1683633b9aca006117c09190613916565b6040518363ffffffff1660e01b81526004016117dd929190613a59565b6020604051808303816000875af11580156117fc573d6000803e3d6000fd5b505050506040513d601f19601f8201168201806040525081019061182091906137f5565b61185f576040517f08c379a000000000000000000000000000000000000000000000000000000000815260040161185690613f65565b60405180910390fd5b611977565b600160009054906101000a900473ffffffffffffffffffffffffffffffffffffffff1673ffffffffffffffffffffffffffffffffffffffff1663a9059cbb8a60010160009054906101000a900473ffffffffffffffffffffffffffffffffffffffff1683633b9aca006118d79190613916565b6040518363ffffffff1660e01b81526004016118f4929190613a59565b6020604051808303816000875af1158015611913573d6000803e3d6000fd5b505050506040513d601f19601f8201168201806040525081019061193791906137f5565b611976576040517f08c379a000000000000000000000000000000000000000000000000000000000815260040161196d90613fd1565b60405180910390fd5b5b6119828a878461260e565b600360009054906101000a900473ffffffffffffffffffffffffffffffffffffffff1673ffffffffffffffffffffffffffffffffffffffff16636399d03d88600001546040518263ffffffff1660e01b81526004016119e19190613075565b600060405180830381600087803b1580156119fb57600080fd5b505af1158015611a0f573d6000803e3d6000fd5b50505050897f5add0b1fc2a3dfd95be33d1d5feb6709087e50213b7a73c3c3b2c387001221e78742604051611a45929190613aee565b60405180910390a2505050505050505050611a5e6124a8565b50565b601e81565b600a81565b606060096000838152602001908152602001600020805480602002602001604051908101604052809291908181526020018280548015611b0057602002820191906000526020600020905b8160009054906101000a900473ffffffffffffffffffffffffffffffffffffffff1673ffffffffffffffffffffffffffffffffffffffff1681526020019060010190808311611ab6575b50505050509050919050565b600a602052816000526040600020602052806000526040600020600091509150508060000154908060010160009054906101000a900460ff16908060010160019054906101000a900460ff16908060010160029054906101000a900460ff16905084565b60055481565b600360009054906101000a900473ffffffffffffffffffffffffffffffffffffffff1681565b603281565b611c2081565b600260009054906101000a900473ffffffffffffffffffffffffffffffffffffffff1681565b611bd56124c3565b600073ffffffffffffffffffffffffffffffffffffffff168173ffffffffffffffffffffffffffffffffffffffff1603611c475760006040517f1e4fbdf7000000000000000000000000000000000000000000000000000000008152600401611c3e91906131db565b60405180910390fd5b611c508161254a565b50565b600b600084815260200190815260200160002060003373ffffffffffffffffffffffffffffffffffffffff1673ffffffffffffffffffffffffffffffffffffffff16815260200190815260200160002060009054906101000a900460ff16611cf0576040517f08c379a0000000000000000000000000000000000000000000000000000000008152600401611ce790613c3b565b60405180910390fd5b600a600084815260200190815260200160002060003373ffffffffffffffffffffffffffffffffffffffff1673ffffffffffffffffffffffffffffffffffffffff16815260200190815260200160002060010160029054906101000a900460ff16611d90576040517f08c379a0000000000000000000000000000000000000000000000000000000008152600401611d879061403d565b60405180910390fd5b600a600084815260200190815260200160002060003373ffffffffffffffffffffffffffffffffffffffff1673ffffffffffffffffffffffffffffffffffffffff16815260200190815260200160002060010160009054906101000a900460ff1615611e31576040517f08c379a0000000000000000000000000000000000000000000000000000000008152600401611e28906140a9565b60405180910390fd5b60086000848152602001908152602001600020600301544211611e89576040517f08c379a0000000000000000000000000000000000000000000000000000000008152600401611e8090613d7f565b60405180910390fd5b6000828233604051602001611ea09392919061376c565b60405160208183030381529060405280519060200120905080600a600086815260200190815260200160002060003373ffffffffffffffffffffffffffffffffffffffff1673ffffffffffffffffffffffffffffffffffffffff1681526020019081526020016000206000015414611f4d576040517f08c379a0000000000000000000000000000000000000000000000000000000008152600401611f4490614115565b60405180910390fd5b6001600a600086815260200190815260200160002060003373ffffffffffffffffffffffffffffffffffffffff1673ffffffffffffffffffffffffffffffffffffffff16815260200190815260200160002060010160006101000a81548160ff02191690831515021790555082600a600086815260200190815260200160002060003373ffffffffffffffffffffffffffffffffffffffff1673ffffffffffffffffffffffffffffffffffffffff16815260200190815260200160002060010160016101000a81548160ff021916908315150217905550821561205b57600860008581526020019081526020016000206005016000815480929190612051906138ce565b9190505550612088565b600860008581526020019081526020016000206006016000815480929190612082906138ce565b91905055505b3373ffffffffffffffffffffffffffffffffffffffff16847f96b7e5dbd1a0bb4b34731d1dfce6ea83eab3fadbf4710c77ad43106f771f90fb85426040516120d1929190613aee565b60405180910390a350505050565b6120e7612485565b60006007600083815260200190815260200160002090506000600381111561211257612111612f38565b5b8160050160009054906101000a900460ff16600381111561213657612135612f38565b5b14612176576040517f08c379a000000000000000000000000000000000000000000000000000000000815260040161216d906139cd565b60405180910390fd5b80600301544211156121bd576040517f08c379a00000000000000000000000000000000000000000000000000000000081526004016121b490614181565b60405180910390fd5b600160009054906101000a900473ffffffffffffffffffffffffffffffffffffffff1673ffffffffffffffffffffffffffffffffffffffff166323b872dd3330633b9aca006040518463ffffffff1660e01b8152600401612220939291906137a9565b6020604051808303816000875af115801561223f573d6000803e3d6000fd5b505050506040513d601f19601f8201168201806040525081019061226391906137f5565b6122a2576040517f08c379a00000000000000000000000000000000000000000000000000000000081526004016122999061387f565b60405180910390fd5b6000600660008154809291906122b7906138ce565b9190505590506040518061012001604052808481526020013373ffffffffffffffffffffffffffffffffffffffff16815260200142815260200162015180426123009190613916565b8152602001633b9aca008152602001600081526020016000815260200160001515815260200160001515815250600860008381526020019081526020016000206000820151816000015560208201518160010160006101000a81548173ffffffffffffffffffffffffffffffffffffffff021916908373ffffffffffffffffffffffffffffffffffffffff16021790555060408201518160020155606082015181600301556080820151816004015560a0820151816005015560c0820151816006015560e08201518160070160006101000a81548160ff0219169083151502179055506101008201518160070160016101000a81548160ff02191690831515021790555090505060018260050160006101000a81548160ff0219169083600381111561242f5761242e612f38565b5b021790555061243d81612a84565b82817f426b36286e45ca0b91fece4e8c7bb3d79cf0956f3a180c4ae43e5b80761ff7373342604051612470929190613a59565b60405180910390a350506124826124a8565b50565b61248d612d89565b600261249f61249a612dca565b612df5565b60000181905550565b60016124ba6124b5612dca565b612df5565b60000181905550565b6124cb612dff565b73ffffffffffffffffffffffffffffffffffffffff166124e9610f88565b73ffffffffffffffffffffffffffffffffffffffff16146125485761250c612dff565b6040517f118cdaa700000000000000000000000000000000000000000000000000000000815260040161253f91906131db565b60405180910390fd5b565b60008060009054906101000a900473ffffffffffffffffffffffffffffffffffffffff169050816000806101000a81548173ffffffffffffffffffffffffffffffffffffffff021916908373ffffffffffffffffffffffffffffffffffffffff1602179055508173ffffffffffffffffffffffffffffffffffffffff168173ffffffffffffffffffffffffffffffffffffffff167f8be0079c531659141344cd1fd0a4f28419497f9722a3daafe3b4186f6b6457e060405160405180910390a35050565b6000600960008581526020019081526020016000208054806020026020016040519081016040528092919081815260200182805480156126a357602002820191906000526020600020905b8160009054906101000a900473ffffffffffffffffffffffffffffffffffffffff1673ffffffffffffffffffffffffffffffffffffffff1681526020019060010190808311612659575b505050505090506000805b8251811015612779576000600a600088815260200190815260200160002060008584815181106126e1576126e06141a1565b5b602002602001015173ffffffffffffffffffffffffffffffffffffffff1673ffffffffffffffffffffffffffffffffffffffff16815260200190815260200160002090508060010160009054906101000a900460ff16801561275757508515158160010160019054906101000a900460ff161515145b1561276b578280612767906138ce565b9350505b5080806001019150506126ae565b5060008103612789575050612a7f565b600081846127979190613e7c565b905060005b8351811015612a7a576000600a600089815260200190815260200160002060008684815181106127cf576127ce6141a1565b5b602002602001015173ffffffffffffffffffffffffffffffffffffffff1673ffffffffffffffffffffffffffffffffffffffff168152602001908152602001600020905060008160010160009054906101000a900460ff16801561284757508715158260010160019054906101000a900460ff161515145b9050600260009054906101000a900473ffffffffffffffffffffffffffffffffffffffff1673ffffffffffffffffffffffffffffffffffffffff1663c5a67fbc87858151811061289a576128996141a1565b5b602002602001015183846128af5760006128b1565b875b6040518463ffffffff1660e01b81526004016128cf939291906141d0565b600060405180830381600087803b1580156128e957600080fd5b505af11580156128fd573d6000803e3d6000fd5b505050508015612a6b57600160009054906101000a900473ffffffffffffffffffffffffffffffffffffffff1673ffffffffffffffffffffffffffffffffffffffff1663a9059cbb878581518110612958576129576141a1565b5b6020026020010151866040518363ffffffff1660e01b815260040161297e929190613a59565b6020604051808303816000875af115801561299d573d6000803e3d6000fd5b505050506040513d601f19601f820116820180604052508101906129c191906137f5565b612a00576040517f08c379a00000000000000000000000000000000000000000000000000000000081526004016129f790614253565b60405180910390fd5b858381518110612a1357612a126141a1565b5b602002602001015173ffffffffffffffffffffffffffffffffffffffff167f53118bff2fb56701752f5bf54053d24fb83cec92f9f6ce664b90c38a2991caa48542604051612a62929190614273565b60405180910390a25b5050808060010191505061279c565b505050505b505050565b6000600260009054906101000a900473ffffffffffffffffffffffffffffffffffffffff1673ffffffffffffffffffffffffffffffffffffffff16636058e6856040518163ffffffff1660e01b8152600401600060405180830381865afa158015612af3573d6000803e3d6000fd5b505050506040513d6000823e3d601f19601f82011682018060405250810190612b1c919061440a565b9050601e81511015612b63576040517f08c379a0000000000000000000000000000000000000000000000000000000008152600401612b5a9061449f565b60405180910390fd5b60006032825110612b75576032612b78565b81515b905060005b81811015612d33576000835142448488604051602001612ba094939291906144e0565b6040516020818303038152906040528051906020012060001c612bc3919061452e565b90506000848281518110612bda57612bd96141a1565b5b60200260200101519050600b600087815260200190815260200160002060008273ffffffffffffffffffffffffffffffffffffffff1673ffffffffffffffffffffffffffffffffffffffff16815260200190815260200160002060009054906101000a900460ff16612d245760096000878152602001908152602001600020819080600181540180825580915050600190039060005260206000200160009091909190916101000a81548173ffffffffffffffffffffffffffffffffffffffff021916908373ffffffffffffffffffffffffffffffffffffffff1602179055506001600b600088815260200190815260200160002060008373ffffffffffffffffffffffffffffffffffffffff1673ffffffffffffffffffffffffffffffffffffffff16815260200190815260200160002060006101000a81548160ff0219169083151502179055505b50508080600101915050612b7d565b50827f3b024922b6a027a50be101446bb4b90a6b55273c922732954e308a3457e38aab600960008681526020019081526020016000208054905042604051612d7c929190614273565b60405180910390a2505050565b612d91612e07565b15612dc8576040517f3ee5aeb500000000000000000000000000000000000000000000000000000000815260040160405180910390fd5b565b60007f9b779b17422d0df92223018b32b4d1fa46e071723d6817e2486d003becc55f0060001b905090565b6000819050919050565b600033905090565b60006002612e1b612e16612dca565b612df5565b6000015414905090565b6040518060800160405280600080191681526020016000151581526020016000151581526020016000151581525090565b6000604051905090565b600080fd5b600080fd5b6000819050919050565b612e7d81612e6a565b8114612e8857600080fd5b50565b600081359050612e9a81612e74565b92915050565b600060208284031215612eb657612eb5612e60565b5b6000612ec484828501612e8b565b91505092915050565b612ed681612e6a565b82525050565b600073ffffffffffffffffffffffffffffffffffffffff82169050919050565b6000612f0782612edc565b9050919050565b612f1781612efc565b82525050565b60008115159050919050565b612f3281612f1d565b82525050565b7f4e487b7100000000000000000000000000000000000000000000000000000000600052602160045260246000fd5b60048110612f7857612f77612f38565b5b50565b6000819050612f8982612f67565b919050565b6000612f9982612f7b565b9050919050565b612fa981612f8e565b82525050565b60048110612fc057612fbf612f38565b5b50565b6000819050612fd182612faf565b919050565b6000612fe182612fc3565b9050919050565b612ff181612fd6565b82525050565b60006101008201905061300d600083018b612ecd565b61301a602083018a612f0e565b6130276040830189612f29565b6130346060830188612ecd565b6130416080830187612ecd565b61304e60a0830186612ecd565b61305b60c0830185612fa0565b61306860e0830184612fe8565b9998505050505050505050565b600060208201905061308a6000830184612ecd565b92915050565b61309981612f1d565b81146130a457600080fd5b50565b6000813590506130b681613090565b92915050565b6000819050919050565b6130cf816130bc565b81146130da57600080fd5b50565b6000813590506130ec816130c6565b92915050565b6130fb81612efc565b811461310657600080fd5b50565b600081359050613118816130f2565b92915050565b60008060006060848603121561313757613136612e60565b5b6000613145868287016130a7565b9350506020613156868287016130dd565b925050604061316786828701613109565b9150509250925092565b61317a816130bc565b82525050565b60006020820190506131956000830184613171565b92915050565b600080604083850312156131b2576131b1612e60565b5b60006131c085828601612e8b565b92505060206131d185828601612e8b565b9150509250929050565b60006020820190506131f06000830184612f0e565b92915050565b6000819050919050565b600061321b61321661321184612edc565b6131f6565b612edc565b9050919050565b600061322d82613200565b9050919050565b600061323f82613222565b9050919050565b61324f81613234565b82525050565b600060208201905061326a6000830184613246565b92915050565b6004811061327d57600080fd5b50565b60008135905061328f81613270565b92915050565b6000806000606084860312156132ae576132ad612e60565b5b60006132bc86828701612e8b565b93505060206132cd868287016130a7565b92505060406132de86828701613280565b9150509250925092565b6000610120820190506132fe600083018c612ecd565b61330b602083018b612f0e565b613318604083018a612ecd565b6133256060830189612ecd565b6133326080830188612ecd565b61333f60a0830187612ecd565b61334c60c0830186612ecd565b61335960e0830185612f29565b613367610100830184612f29565b9a9950505050505050505050565b6000806040838503121561338c5761338b612e60565b5b600061339a85828601612e8b565b92505060206133ab85828601613109565b9150509250929050565b60006020820190506133ca6000830184612f29565b92915050565b600080604083850312156133e7576133e6612e60565b5b60006133f585828601612e8b565b9250506020613406858286016130dd565b9150509250929050565b613419816130bc565b82525050565b61342881612f1d565b82525050565b6080820160008201516134446000850182613410565b506020820151613457602085018261341f565b50604082015161346a604085018261341f565b50606082015161347d606085018261341f565b50505050565b6000608082019050613498600083018461342e565b92915050565b600081519050919050565b600082825260208201905092915050565b6000819050602082019050919050565b6134d381612efc565b82525050565b60006134e583836134ca565b60208301905092915050565b6000602082019050919050565b60006135098261349e565b61351381856134a9565b935061351e836134ba565b8060005b8381101561354f57815161353688826134d9565b9750613541836134f1565b925050600181019050613522565b5085935050505092915050565b6000602082019050818103600083015261357681846134fe565b905092915050565b60006080820190506135936000830187613171565b6135a06020830186612f29565b6135ad6040830185612f29565b6135ba6060830184612f29565b95945050505050565b60006135ce82613222565b9050919050565b6135de816135c3565b82525050565b60006020820190506135f960008301846135d5565b92915050565b600061360a82613222565b9050919050565b61361a816135ff565b82525050565b60006020820190506136356000830184613611565b92915050565b60006020828403121561365157613650612e60565b5b600061365f84828501613109565b91505092915050565b60008060006060848603121561368157613680612e60565b5b600061368f86828701612e8b565b93505060206136a0868287016130a7565b92505060406136b1868287016130dd565b9150509250925092565b60008160f81b9050919050565b60006136d3826136bb565b9050919050565b60006136e5826136c8565b9050919050565b6136fd6136f882612f1d565b6136da565b82525050565b6000819050919050565b61371e613719826130bc565b613703565b82525050565b60008160601b9050919050565b600061373c82613724565b9050919050565b600061374e82613731565b9050919050565b61376661376182612efc565b613743565b82525050565b600061377882866136ec565b600182019150613788828561370d565b6020820191506137988284613755565b601482019150819050949350505050565b60006060820190506137be6000830186612f0e565b6137cb6020830185612f0e565b6137d86040830184612ecd565b949350505050565b6000815190506137ef81613090565b92915050565b60006020828403121561380b5761380a612e60565b5b6000613819848285016137e0565b91505092915050565b600082825260208201905092915050565b7f426f6e64207472616e73666572206661696c6564000000000000000000000000600082015250565b6000613869601483613822565b915061387482613833565b602082019050919050565b600060208201905081810360008301526138988161385c565b9050919050565b7f4e487b7100000000000000000000000000000000000000000000000000000000600052601160045260246000fd5b60006138d982612e6a565b91507fffffffffffffffffffffffffffffffffffffffffffffffffffffffffffffffff820361390b5761390a61389f565b5b600182019050919050565b600061392182612e6a565b915061392c83612e6a565b92508282019050808211156139445761394361389f565b5b92915050565b600060608201905061395f6000830186612f29565b61396c6020830185612f0e565b6139796040830184612ecd565b949350505050565b7f4e6f7420696e2070726f706f7365642073746174650000000000000000000000600082015250565b60006139b7601583613822565b91506139c282613981565b602082019050919050565b600060208201905081810360008301526139e6816139aa565b9050919050565b7f446973707574652077696e646f77207374696c6c206f70656e00000000000000600082015250565b6000613a23601983613822565b9150613a2e826139ed565b602082019050919050565b60006020820190508181036000830152613a5281613a16565b9050919050565b6000604082019050613a6e6000830185612f0e565b613a7b6020830184612ecd565b9392505050565b7f426f6e642072657475726e206661696c65640000000000000000000000000000600082015250565b6000613ab8601283613822565b9150613ac382613a82565b602082019050919050565b60006020820190508181036000830152613ae781613aab565b9050919050565b6000604082019050613b036000830185612f29565b613b106020830184612ecd565b9392505050565b7f416c7265616479207265736f6c76656400000000000000000000000000000000600082015250565b6000613b4d601083613822565b9150613b5882613b17565b602082019050919050565b60006020820190508181036000830152613b7c81613b40565b9050919050565b7f456e6f75676820766f74657320616c7265616479000000000000000000000000600082015250565b6000613bb9601483613822565b9150613bc482613b83565b602082019050919050565b60006020820190508181036000830152613be881613bac565b9050919050565b7f4e6f7420612073656c6563746564206a75726f72000000000000000000000000600082015250565b6000613c25601483613822565b9150613c3082613bef565b602082019050919050565b60006020820190508181036000830152613c5481613c18565b9050919050565b7f416c726561647920636f6d6d6974746564000000000000000000000000000000600082015250565b6000613c91601183613822565b9150613c9c82613c5b565b602082019050919050565b60006020820190508181036000830152613cc081613c84565b9050919050565b7f566f74696e672077696e646f7720636c6f736564000000000000000000000000600082015250565b6000613cfd601483613822565b9150613d0882613cc7565b602082019050919050565b60006020820190508181036000830152613d2c81613cf0565b9050919050565b7f566f74696e67207374696c6c206f70656e000000000000000000000000000000600082015250565b6000613d69601183613822565b9150613d7482613d33565b602082019050919050565b60006020820190508181036000830152613d9881613d5c565b9050919050565b7f4e6f7420656e6f75676820766f74657300000000000000000000000000000000600082015250565b6000613dd5601083613822565b9150613de082613d9f565b602082019050919050565b60006020820190508181036000830152613e0481613dc8565b9050919050565b6000613e1682612e6a565b9150613e2183612e6a565b9250828202613e2f81612e6a565b91508282048414831517613e4657613e4561389f565b5b5092915050565b7f4e487b7100000000000000000000000000000000000000000000000000000000600052601260045260246000fd5b6000613e8782612e6a565b9150613e9283612e6a565b925082613ea257613ea1613e4d565b5b828204905092915050565b7f5472656173757279207472616e73666572206661696c65640000000000000000600082015250565b6000613ee3601883613822565b9150613eee82613ead565b602082019050919050565b60006020820190508181036000830152613f1281613ed6565b9050919050565b7f50726f706f73657220726577617264206661696c656400000000000000000000600082015250565b6000613f4f601683613822565b9150613f5a82613f19565b602082019050919050565b60006020820190508181036000830152613f7e81613f42565b9050919050565b7f446973707574657220726577617264206661696c656400000000000000000000600082015250565b6000613fbb601683613822565b9150613fc682613f85565b602082019050919050565b60006020820190508181036000830152613fea81613fae565b9050919050565b7f566f7465206e6f7420636f6d6d69747465640000000000000000000000000000600082015250565b6000614027601283613822565b915061403282613ff1565b602082019050919050565b600060208201905081810360008301526140568161401a565b9050919050565b7f416c72656164792072657665616c656400000000000000000000000000000000600082015250565b6000614093601083613822565b915061409e8261405d565b602082019050919050565b600060208201905081810360008301526140c281614086565b9050919050565b7f496e76616c69642072657665616c000000000000000000000000000000000000600082015250565b60006140ff600e83613822565b915061410a826140c9565b602082019050919050565b6000602082019050818103600083015261412e816140f2565b9050919050565b7f446973707574652077696e646f7720636c6f7365640000000000000000000000600082015250565b600061416b601583613822565b915061417682614135565b602082019050919050565b6000602082019050818103600083015261419a8161415e565b9050919050565b7f4e487b7100000000000000000000000000000000000000000000000000000000600052603260045260246000fd5b60006060820190506141e56000830186612f0e565b6141f26020830185612f29565b6141ff6040830184612ecd565b949350505050565b7f4a75726f7220726577617264206661696c656400000000000000000000000000600082015250565b600061423d601383613822565b915061424882614207565b602082019050919050565b6000602082019050818103600083015261426c81614230565b9050919050565b60006040820190506142886000830185612ecd565b6142956020830184612ecd565b9392505050565b600080fd5b6000601f19601f8301169050919050565b7f4e487b7100000000000000000000000000000000000000000000000000000000600052604160045260246000fd5b6142ea826142a1565b810181811067ffffffffffffffff82111715614309576143086142b2565b5b80604052505050565b600061431c612e56565b905061432882826142e1565b919050565b600067ffffffffffffffff821115614348576143476142b2565b5b602082029050602081019050919050565b600080fd5b60008151905061436d816130f2565b92915050565b60006143866143818461432d565b614312565b905080838252602082019050602084028301858111156143a9576143a8614359565b5b835b818110156143d257806143be888261435e565b8452602084019350506020810190506143ab565b5050509392505050565b600082601f8301126143f1576143f061429c565b5b8151614401848260208601614373565b91505092915050565b6000602082840312156144205761441f612e60565b5b600082015167ffffffffffffffff81111561443e5761443d612e65565b5b61444a848285016143dc565b91505092915050565b7f4e6f7420656e6f75676820616374697665206a75726f72730000000000000000600082015250565b6000614489601883613822565b915061449482614453565b602082019050919050565b600060208201905081810360008301526144b88161447c565b9050919050565b6000819050919050565b6144da6144d582612e6a565b6144bf565b82525050565b60006144ec82876144c9565b6020820191506144fc82866144c9565b60208201915061450c82856144c9565b60208201915061451c82846144c9565b60208201915081905095945050505050565b600061453982612e6a565b915061454483612e6a565b92508261455457614553613e4d565b5b82820690509291505056fea264697066735822122015be8a432b0b268b958a981a399dece027c8bcea4c6e09e3bafc06f7c1a6bcac64736f6c634300081c0033",
  "linkReferences": {},
  "deployedLinkReferences": {}
}