{
  "_format": "hh-sol-artifact-1",
  "contractName": "MarketFactory",
  "sourceName": "contracts/MarketFactory.sol",
  "abi": [
    {
      "inputs": [
        {
          "internalType": "address",
          "name": "_usdc",
          "type": "address"
        },
        {
          "internalType": "address",
          "name": "_treasury",
          "type": "address"
        }
      ],
      "stateMutability": "nonpayable",
      "type": "constructor"
    },
    {
      "inputs": [
        {
          "internalType": "address",
          "name": "owner",
          "type": "address"
        }
      ],
      "name": "OwnableInvalidOwner",
      "type": "error"
    },
    {
      "inputs": [
        {
          "internalType": "address",
          "name": "account",
          "type": "address"
        }
      ],
      "name": "OwnableUnauthorizedAccount",
      "type": "error"
    },
    {
      "anonymous": false,
      "inputs": [
        {
          "indexed": true,
          "internalType": "address",
          "name": "creator",
          "type": "address"
        },
        {
          "indexed": false,
          "internalType": "uint256",
          "name": "timestamp",
          "type": "uint256"
        }
      ],
      "name": "CreatorApproved",
      "type": "event"
    },
    {
      "anonymous": false,
      "inputs": [
        {
          "indexed": true,
          "internalType": "address",
          "name": "creator",
          "type": "address"
        },
        {
          "indexed": false,
          "internalType": "uint256",
          "name": "timestamp",
          "type": "uint256"
        }
      ],
      "name": "CreatorRemoved",
      "type": "event"
    },
    {
      "anonymous": false,
      "inputs": [
        {
          "indexed": true,
          "internalType": "address",
          "name": "market",
          "type": "address"
        },
        {
          "indexed": true,
          "internalType": "address",
          "name": "creator",
          "type": "address"
        },
        {
          "indexed": false,
          "internalType": "string",
          "name": "question",
          "type": "string"
        },
        {
          "indexed": false,
          "internalType": "uint256",
          "name": "timestamp",
          "type": "uint256"
        }
      ],
      "name": "MarketCreated",
      "type": "event"
    },
    {
      "anonymous": false,
      "inputs": [
        {
          "indexed": true,
          "internalType": "address",
          "name": "previousOwner",
          "type": "address"
        },
        {
          "indexed": true,
          "internalType": "address",
          "name": "newOwner",
          "type": "address"
        }
      ],
      "name": "OwnershipTransferred",
      "type": "event"
    },
    {
      "inputs": [
        {
          "internalType": "uint256",
          "name": "",
          "type": "uint256"
        }
      ],
      "name": "allMarkets",
      "outputs": [
        {
          "internalType": "address",
          "name": "",
          "type": "address"
        }
      ],
      "stateMutability": "view",
      "type": "function"
    },
    {
      "inputs": [
        {
          "internalType": "address",
          "name": "_creator",
          "type": "address"
        }
      ],
      "name": "approveCreator",
      "outputs": [],
      "stateMutability": "nonpayable",
      "type": "function"
    },
    {
      "inputs": [
        {
          "internalType": "address",
          "name": "",
          "type": "address"
        }
      ],
      "name": "approvedCreators",
      "outputs": [
        {
          "internalType": "bool",
          "name": "",
          "type": "bool"
        }
      ],
      "stateMutability": "view",
      "type": "function"
    },
    {
      "inputs": [
        {
          "internalType": "address",
          "name": "",
          "type": "address"
        },
        {
          "internalType": "uint256",
          "name": "",
          "type": "uint256"
        }
      ],
      "name": "creatorMarkets",
      "outputs": [
        {
          "internalType": "address",
          "name": "",
          "type": "address"
        }
      ],
      "stateMutability": "view",
      "type": "function"
    },
    {
      "inputs": [],
      "name": "getAllMarkets",
      "outputs": [
        {
          "internalType": "address[]",
          "name": "",
          "type": "address[]"
        }
      ],
      "stateMutability": "view",
      "type": "function"
    },
    {
      "inputs": [
        {
          "internalType": "address",
          "name": "_creator",
          "type": "address"
        }
      ],
      "name": "getCreatorMarkets",
      "outputs": [
        {
          "internalType": "address[]",
          "name": "",
          "type": "address[]"
        }
      ],
      "stateMutability": "view",
      "type": "function"
    },
    {
      "inputs": [],
      "name": "getTotalMarkets",
      "outputs": [
        {
          "internalType": "uint256",
          "name": "",
          "type": "uint256"
        }
      ],
      "stateMutability": "view",
      "type": "function"
    },
    {
      "inputs": [],
      "name": "owner",
      "outputs": [
        {
          "internalType": "address",
          "name": "",
          "type": "address"
        }
      ],
      "stateMutability": "view",
      "type": "function"
    },
    {
      "inputs": [
        {
          "internalType": "address",
          "name": "_market",
          "type": "address"
        },
        {
          "internalType": "string",
          "name": "_question",
          "type": "string"
        }
      ],
      "name": "registerMarket",
      "outputs": [],
      "stateMutability": "nonpayable",
      "type": "function"
    },
    {
      "inputs": [
        {
          "internalType": "address",
          "name": "_creator",
          "type": "address"
        }
      ],
      "name": "removeCreator",
      "outputs": [],
      "stateMutability": "nonpayable",
      "type": "function"
    },
    {
      "inputs": [],
      "name": "renounceOwnership",
      "outputs": [],
      "stateMutability": "nonpayable",
      "type": "function"
    },
    {
      "inputs": [
        {
          "internalType": "address",
          "name": "newOwner",
          "type": "address"
        }
      ],
      "name": "transferOwnership",
      "outputs": [],
      "stateMutability": "nonpayable",
      "type": "function"
    },
    {
      "inputs": [],
      "name": "treasury",
      "outputs": [
        {
          "internalType": "address",
          "name": "",
          "type": "address"
        }
      ],
      "stateMutability": "view",
      "type": "function"
    },
    {
      "inputs": [],
      "name": "usdc",
      "outputs": [
        {
          "internalType": "address",
          "name": "",
          "type": "address"
        }
      ],
      "stateMutability": "view",
      "type": "function"
    }
  ],
  "bytecode": "0x608060405234801561001057600080fd5b5060405161158438038061158483398181016040528101906100329190610265565b33600073ffffffffffffffffffffffffffffffffffffffff168173ffffffffffffffffffffffffffffffffffffffff16036100a55760006040517f1e4fbdf700000000000000000000000000000000000000000000000000000000815260040161009c91906102b4565b60405180910390fd5b6100b48161013e60201b60201c565b5081600260006101000a81548173ffffffffffffffffffffffffffffffffffffffff021916908373ffffffffffffffffffffffffffffffffffffffff16021790555080600160006101000a81548173ffffffffffffffffffffffffffffffffffffffff021916908373ffffffffffffffffffffffffffffffffffffffff16021790555050506102cf565b60008060009054906101000a900473ffffffffffffffffffffffffffffffffffffffff169050816000806101000a81548173ffffffffffffffffffffffffffffffffffffffff021916908373ffffffffffffffffffffffffffffffffffffffff1602179055508173ffffffffffffffffffffffffffffffffffffffff168173ffffffffffffffffffffffffffffffffffffffff167f8be0079c531659141344cd1fd0a4f28419497f9722a3daafe3b4186f6b6457e060405160405180910390a35050565b600080fd5b600073ffffffffffffffffffffffffffffffffffffffff82169050919050565b600061023282610207565b9050919050565b61024281610227565b811461024d57600080fd5b50565b60008151905061025f81610239565b92915050565b6000806040838503121561027c5761027b610202565b5b600061028a85828601610250565b925050602061029b85828601610250565b9150509250929050565b6102ae81610227565b82525050565b60006020820190506102c960008301846102a5565b92915050565b6112a6806102de6000396000f3fe608060405234801561001057600080fd5b50600436106100ea5760003560e01c806381ebf2091161008c578063b0772d0b11610066578063b0772d0b14610239578063ba1f519514610257578063bd6018bb14610287578063f2fde38b146102a3576100ea565b806381ebf209146101cd5780638da5cb5b146101eb57806396dcf74e14610209576100ea565b806352d84d1e116100c857806352d84d1e14610145578063552324671461017557806361d027b3146101a5578063715018a6146101c3576100ea565b806327ebc1fe146100ef5780633079fc901461010b5780633e413bee14610127575b600080fd5b61010960048036038101906101049190610d96565b6102bf565b005b61012560048036038101906101209190610df6565b610568565b005b61012f610715565b60405161013c9190610e32565b60405180910390f35b61015f600480360381019061015a9190610e83565b61073b565b60405161016c9190610e32565b60405180910390f35b61018f600480360381019061018a9190610df6565b61077a565b60405161019c9190610ecb565b60405180910390f35b6101ad61079a565b6040516101ba9190610e32565b60405180910390f35b6101cb6107c0565b005b6101d56107d4565b6040516101e29190610ef5565b60405180910390f35b6101f36107e1565b6040516102009190610e32565b60405180910390f35b610223600480360381019061021e9190610df6565b61080a565b6040516102309190610fce565b60405180910390f35b6102416108d7565b60405161024e9190610fce565b60405180910390f35b610271600480360381019061026c9190610ff0565b610965565b60405161027e9190610e32565b60405180910390f35b6102a1600480360381019061029c9190610df6565b6109b3565b005b6102bd60048036038101906102b89190610df6565b610af0565b005b600460003373ffffffffffffffffffffffffffffffffffffffff1673ffffffffffffffffffffffffffffffffffffffff16815260200190815260200160002060009054906101000a900460ff1680610349575061031a6107e1565b73ffffffffffffffffffffffffffffffffffffffff163373ffffffffffffffffffffffffffffffffffffffff16145b610388576040517f08c379a000000000000000000000000000000000000000000000000000000000815260040161037f9061108d565b60405180910390fd5b600073ffffffffffffffffffffffffffffffffffffffff168373ffffffffffffffffffffffffffffffffffffffff16036103f7576040517f08c379a00000000000000000000000000000000000000000000000000000000081526004016103ee906110f9565b60405180910390fd5b6003839080600181540180825580915050600190039060005260206000200160009091909190916101000a81548173ffffffffffffffffffffffffffffffffffffffff021916908373ffffffffffffffffffffffffffffffffffffffff160217905550600560003373ffffffffffffffffffffffffffffffffffffffff1673ffffffffffffffffffffffffffffffffffffffff168152602001908152602001600020839080600181540180825580915050600190039060005260206000200160009091909190916101000a81548173ffffffffffffffffffffffffffffffffffffffff021916908373ffffffffffffffffffffffffffffffffffffffff1602179055503373ffffffffffffffffffffffffffffffffffffffff168373ffffffffffffffffffffffffffffffffffffffff167f1ef7c8a258cab3fb17a105981177054e61cccc6d8b9f3803997271279f7ab64d84844260405161055b93929190611166565b60405180910390a3505050565b610570610b76565b600073ffffffffffffffffffffffffffffffffffffffff168173ffffffffffffffffffffffffffffffffffffffff16036105df576040517f08c379a00000000000000000000000000000000000000000000000000000000081526004016105d6906111e4565b60405180910390fd5b600460008273ffffffffffffffffffffffffffffffffffffffff1673ffffffffffffffffffffffffffffffffffffffff16815260200190815260200160002060009054906101000a900460ff161561066c576040517f08c379a000000000000000000000000000000000000000000000000000000000815260040161066390611250565b60405180910390fd5b6001600460008373ffffffffffffffffffffffffffffffffffffffff1673ffffffffffffffffffffffffffffffffffffffff16815260200190815260200160002060006101000a81548160ff0219169083151502179055508073ffffffffffffffffffffffffffffffffffffffff167fb423a715129713b1d5a236ab950ba85fefb065bba7827adeab66a4560126ee2b4260405161070a9190610ef5565b60405180910390a250565b600260009054906101000a900473ffffffffffffffffffffffffffffffffffffffff1681565b6003818154811061074b57600080fd5b906000526020600020016000915054906101000a900473ffffffffffffffffffffffffffffffffffffffff1681565b60046020528060005260406000206000915054906101000a900460ff1681565b600160009054906101000a900473ffffffffffffffffffffffffffffffffffffffff1681565b6107c8610b76565b6107d26000610bfd565b565b6000600380549050905090565b60008060009054906101000a900473ffffffffffffffffffffffffffffffffffffffff16905090565b6060600560008373ffffffffffffffffffffffffffffffffffffffff1673ffffffffffffffffffffffffffffffffffffffff1681526020019081526020016000208054806020026020016040519081016040528092919081815260200182805480156108cb57602002820191906000526020600020905b8160009054906101000a900473ffffffffffffffffffffffffffffffffffffffff1673ffffffffffffffffffffffffffffffffffffffff1681526020019060010190808311610881575b50505050509050919050565b6060600380548060200260200160405190810160405280929190818152602001828054801561095b57602002820191906000526020600020905b8160009054906101000a900473ffffffffffffffffffffffffffffffffffffffff1673ffffffffffffffffffffffffffffffffffffffff1681526020019060010190808311610911575b5050505050905090565b6005602052816000526040600020818154811061098157600080fd5b906000526020600020016000915091509054906101000a900473ffffffffffffffffffffffffffffffffffffffff1681565b6109bb610b76565b600460008273ffffffffffffffffffffffffffffffffffffffff1673ffffffffffffffffffffffffffffffffffffffff16815260200190815260200160002060009054906101000a900460ff16610a47576040517f08c379a0000000000000000000000000000000000000000000000000000000008152600401610a3e9061108d565b60405180910390fd5b6000600460008373ffffffffffffffffffffffffffffffffffffffff1673ffffffffffffffffffffffffffffffffffffffff16815260200190815260200160002060006101000a81548160ff0219169083151502179055508073ffffffffffffffffffffffffffffffffffffffff167f03d19d2c09674ffa37e0af06e9f926a03b45d2f6195923046a361b8c8c27618342604051610ae59190610ef5565b60405180910390a250565b610af8610b76565b600073ffffffffffffffffffffffffffffffffffffffff168173ffffffffffffffffffffffffffffffffffffffff1603610b6a5760006040517f1e4fbdf7000000000000000000000000000000000000000000000000000000008152600401610b619190610e32565b60405180910390fd5b610b7381610bfd565b50565b610b7e610cc1565b73ffffffffffffffffffffffffffffffffffffffff16610b9c6107e1565b73ffffffffffffffffffffffffffffffffffffffff1614610bfb57610bbf610cc1565b6040517f118cdaa7000000000000000000000000000000000000000000000000000000008152600401610bf29190610e32565b60405180910390fd5b565b60008060009054906101000a900473ffffffffffffffffffffffffffffffffffffffff169050816000806101000a81548173ffffffffffffffffffffffffffffffffffffffff021916908373ffffffffffffffffffffffffffffffffffffffff1602179055508173ffffffffffffffffffffffffffffffffffffffff168173ffffffffffffffffffffffffffffffffffffffff167f8be0079c531659141344cd1fd0a4f28419497f9722a3daafe3b4186f6b6457e060405160405180910390a35050565b600033905090565b600080fd5b600080fd5b600073ffffffffffffffffffffffffffffffffffffffff82169050919050565b6000610cfe82610cd3565b9050919050565b610d0e81610cf3565b8114610d1957600080fd5b50565b600081359050610d2b81610d05565b92915050565b600080fd5b600080fd5b600080fd5b60008083601f840112610d5657610d55610d31565b5b8235905067ffffffffffffffff811115610d7357610d72610d36565b5b602083019150836001820283011115610d8f57610d8e610d3b565b5b9250929050565b600080600060408486031215610daf57610dae610cc9565b5b6000610dbd86828701610d1c565b935050602084013567ffffffffffffffff811115610dde57610ddd610cce565b5b610dea86828701610d40565b92509250509250925092565b600060208284031215610e0c57610e0b610cc9565b5b6000610e1a84828501610d1c565b91505092915050565b610e2c81610cf3565b82525050565b6000602082019050610e476000830184610e23565b92915050565b6000819050919050565b610e6081610e4d565b8114610e6b57600080fd5b50565b600081359050610e7d81610e57565b92915050565b600060208284031215610e9957610e98610cc9565b5b6000610ea784828501610e6e565b91505092915050565b60008115159050919050565b610ec581610eb0565b82525050565b6000602082019050610ee06000830184610ebc565b92915050565b610eef81610e4d565b82525050565b6000602082019050610f0a6000830184610ee6565b92915050565b600081519050919050565b600082825260208201905092915050565b6000819050602082019050919050565b610f4581610cf3565b82525050565b6000610f578383610f3c565b60208301905092915050565b6000602082019050919050565b6000610f7b82610f10565b610f858185610f1b565b9350610f9083610f2c565b8060005b83811015610fc1578151610fa88882610f4b565b9750610fb383610f63565b925050600181019050610f94565b5085935050505092915050565b60006020820190508181036000830152610fe88184610f70565b905092915050565b6000806040838503121561100757611006610cc9565b5b600061101585828601610d1c565b925050602061102685828601610e6e565b9150509250929050565b600082825260208201905092915050565b7f4e6f7420616e20617070726f7665642063726561746f72000000000000000000600082015250565b6000611077601783611030565b915061108282611041565b602082019050919050565b600060208201905081810360008301526110a68161106a565b9050919050565b7f496e76616c6964206d61726b6574206164647265737300000000000000000000600082015250565b60006110e3601683611030565b91506110ee826110ad565b602082019050919050565b60006020820190508181036000830152611112816110d6565b9050919050565b82818337600083830152505050565b6000601f19601f8301169050919050565b60006111458385611030565b9350611152838584611119565b61115b83611128565b840190509392505050565b60006040820190508181036000830152611181818587611139565b90506111906020830184610ee6565b949350505050565b7f496e76616c696420616464726573730000000000000000000000000000000000600082015250565b60006111ce600f83611030565b91506111d982611198565b602082019050919050565b600060208201905081810360008301526111fd816111c1565b9050919050565b7f416c726561647920617070726f76656400000000000000000000000000000000600082015250565b600061123a601083611030565b915061124582611204565b602082019050919050565b600060208201905081810360008301526112698161122d565b905091905056fea2646970667358221220e2a2eefd577a3f004360abff937447f4fd80a3e9494bb2a1fab5839c8e7dc14564736f6c634300081c0033",
  "linkReferences": {},
  "deployedLinkReferences": {}
}