{
  "_format": "hh-sol-artifact-1",
  "contractName": "PredictionMarket",
  "sourceName": "contracts/PredictionMarket.sol",
  "abi": [
    {
      "inputs": [
        {
          "internalType": "address",
          "name": "_usdc",
          "type": "address"
        },
        {
          "internalType": "address",
          "name": "_treasury",
          "type": "address"
        },
        {
          "internalType": "address",
          "name": "_factory",
          "type": "address"
        }
      ],
      "stateMutability": "nonpayable",
      "type": "constructor"
    },
    {
      "inputs": [
        {
          "internalType": "address",
          "name": "owner",
          "type": "address"
        }
      ],
      "name": "OwnableInvalidOwner",
      "type": "error"
    },
    {
      "inputs": [
        {
          "internalType": "address",
          "name": "account",
          "type": "address"
        }
      ],
      "name": "OwnableUnauthorizedAccount",
      "type": "error"
    },
    {
      "inputs": [],
      "name": "ReentrancyGuardReentrantCall",
      "type": "error"
    },
    {
      "anonymous": false,
      "inputs": [
        {
          "indexed": true,
          "internalType": "uint256",
          "name": "marketId",
          "type": "uint256"
        },
        {
          "indexed": true,
          "internalType": "address",
          "name": "user",
          "type": "address"
        },
        {
          "indexed": false,
          "internalType": "bool",
          "name": "isYes",
          "type": "bool"
        },
        {
          "indexed": false,
          "internalType": "uint256",
          "name": "payout",
          "type": "uint256"
        },
        {
          "indexed": false,
          "internalType": "uint256",
          "name": "timestamp",
          "type": "uint256"
        }
      ],
      "name": "CashoutProcessed",
      "type": "event"
    },
    {
      "anonymous": false,
      "inputs": [
        {
          "indexed": true,
          "internalType": "uint256",
          "name": "marketId",
          "type": "uint256"
        },
        {
          "indexed": false,
          "internalType": "uint256",
          "name": "timestamp",
          "type": "uint256"
        }
      ],
      "name": "MarketCancelled",
      "type": "event"
    },
    {
      "anonymous": false,
      "inputs": [
        {
          "indexed": true,
          "internalType": "uint256",
          "name": "marketId",
          "type": "uint256"
        },
        {
          "indexed": false,
          "internalType": "string",
          "name": "question",
          "type": "string"
        },
        {
          "indexed": false,
          "internalType": "uint256",
          "name": "initialLiquidity",
          "type": "uint256"
        },
        {
          "indexed": false,
          "internalType": "uint256",
          "name": "timestamp",
          "type": "uint256"
        }
      ],
      "name": "MarketCreated",
      "type": "event"
    },
    {
      "anonymous": false,
      "inputs": [
        {
          "indexed": true,
          "internalType": "uint256",
          "name": "marketId",
          "type": "uint256"
        },
        {
          "indexed": false,
          "internalType": "uint256",
          "name": "timestamp",
          "type": "uint256"
        }
      ],
      "name": "MarketPaused",
      "type": "event"
    },
    {
      "anonymous": false,
      "inputs": [
        {
          "indexed": true,
          "internalType": "uint256",
          "name": "marketId",
          "type": "uint256"
        },
        {
          "indexed": false,
          "internalType": "bool",
          "name": "result",
          "type": "bool"
        },
        {
          "indexed": false,
          "internalType": "uint256",
          "name": "timestamp",
          "type": "uint256"
        }
      ],
      "name": "MarketResolved",
      "type": "event"
    },
    {
      "anonymous": false,
      "inputs": [
        {
          "indexed": true,
          "internalType": "uint256",
          "name": "marketId",
          "type": "uint256"
        },
        {
          "indexed": false,
          "internalType": "uint256",
          "name": "timestamp",
          "type": "uint256"
        }
      ],
      "name": "MarketUnpaused",
      "type": "event"
    },
    {
      "anonymous": false,
      "inputs": [
        {
          "indexed": true,
          "internalType": "address",
          "name": "previousOwner",
          "type": "address"
        },
        {
          "indexed": true,
          "internalType": "address",
          "name": "newOwner",
          "type": "address"
        }
      ],
      "name": "OwnershipTransferred",
      "type": "event"
    },
    {
      "anonymous": false,
      "inputs": [
        {
          "indexed": true,
          "internalType": "uint256",
          "name": "marketId",
          "type": "uint256"
        },
        {
          "indexed": true,
          "internalType": "address",
          "name": "user",
          "type": "address"
        },
        {
          "indexed": false,
          "internalType": "uint256",
          "name": "amount",
          "type": "uint256"
        },
        {
          "indexed": false,
          "internalType": "uint256",
          "name": "timestamp",
          "type": "uint256"
        }
      ],
      "name": "RefundClaimed",
      "type": "event"
    },
    {
      "anonymous": false,
      "inputs": [
        {
          "indexed": true,
          "internalType": "uint256",
          "name": "marketId",
          "type": "uint256"
        },
        {
          "indexed": false,
          "internalType": "bool",
          "name": "result",
          "type": "bool"
        },
        {
          "indexed": false,
          "internalType": "uint256",
          "name": "timestamp",
          "type": "uint256"
        }
      ],
      "name": "ResultProposed",
      "type": "event"
    },
    {
      "anonymous": false,
      "inputs": [
        {
          "indexed": true,
          "internalType": "uint256",
          "name": "marketId",
          "type": "uint256"
        },
        {
          "indexed": true,
          "internalType": "address",
          "name": "user",
          "type": "address"
        },
        {
          "indexed": false,
          "internalType": "bool",
          "name": "isYes",
          "type": "bool"
        },
        {
          "indexed": false,
          "internalType": "uint256",
          "name": "amount",
          "type": "uint256"
        },
        {
          "indexed": false,
          "internalType": "uint256",
          "name": "shares",
          "type": "uint256"
        },
        {
          "indexed": false,
          "internalType": "uint256",
          "name": "timestamp",
          "type": "uint256"
        }
      ],
      "name": "SharesPurchased",
      "type": "event"
    },
    {
      "anonymous": false,
      "inputs": [
        {
          "indexed": true,
          "internalType": "uint256",
          "name": "marketId",
          "type": "uint256"
        },
        {
          "indexed": true,
          "internalType": "address",
          "name": "user",
          "type": "address"
        },
        {
          "indexed": false,
          "internalType": "uint256",
          "name": "amount",
          "type": "uint256"
        },
        {
          "indexed": false,
          "internalType": "uint256",
          "name": "timestamp",
          "type": "uint256"
        }
      ],
      "name": "WinningsClaimed",
      "type": "event"
    },
    {
      "inputs": [],
      "name": "CASHOUT_CLOSE_BEFORE",
      "outputs": [
        {
          "internalType": "uint256",
          "name": "",
          "type": "uint256"
        }
      ],
      "stateMutability": "view",
      "type": "function"
    },
    {
      "inputs": [],
      "name": "CASHOUT_FEE",
      "outputs": [
        {
          "internalType": "uint256",
          "name": "",
          "type": "uint256"
        }
      ],
      "stateMutability": "view",
      "type": "function"
    },
    {
      "inputs": [],
      "name": "MAX_CASHOUT_PERCENT",
      "outputs": [
        {
          "internalType": "uint256",
          "name": "",
          "type": "uint256"
        }
      ],
      "stateMutability": "view",
      "type": "function"
    },
    {
      "inputs": [],
      "name": "MINIMUM_POOL",
      "outputs": [
        {
          "internalType": "uint256",
          "name": "",
          "type": "uint256"
        }
      ],
      "stateMutability": "view",
      "type": "function"
    },
    {
      "inputs": [],
      "name": "OVERROUND",
      "outputs": [
        {
          "internalType": "uint256",
          "name": "",
          "type": "uint256"
        }
      ],
      "stateMutability": "view",
      "type": "function"
    },
    {
      "inputs": [],
      "name": "PROTOCOL_FEE_PERCENT",
      "outputs": [
        {
          "internalType": "uint256",
          "name": "",
          "type": "uint256"
        }
      ],
      "stateMutability": "view",
      "type": "function"
    },
    {
      "inputs": [],
      "name": "RESOLUTION_TIMEOUT",
      "outputs": [
        {
          "internalType": "uint256",
          "name": "",
          "type": "uint256"
        }
      ],
      "stateMutability": "view",
      "type": "function"
    },
    {
      "inputs": [
        {
          "internalType": "uint256",
          "name": "_marketId",
          "type": "uint256"
        },
        {
          "internalType": "bool",
          "name": "_isYes",
          "type": "bool"
        },
        {
          "internalType": "uint256",
          "name": "_amount",
          "type": "uint256"
        }
      ],
      "name": "buyShares",
      "outputs": [],
      "stateMutability": "nonpayable",
      "type": "function"
    },
    {
      "inputs": [
        {
          "internalType": "uint256",
          "name": "_marketId",
          "type": "uint256"
        },
        {
          "internalType": "bool",
          "name": "_isYes",
          "type": "bool"
        },
        {
          "internalType": "uint256",
          "name": "_amount",
          "type": "uint256"
        }
      ],
      "name": "calculatePayout",
      "outputs": [
        {
          "internalType": "uint256",
          "name": "shares",
          "type": "uint256"
        },
        {
          "internalType": "uint256",
          "name": "potentialPayout",
          "type": "uint256"
        }
      ],
      "stateMutability": "view",
      "type": "function"
    },
    {
      "inputs": [
        {
          "internalType": "uint256",
          "name": "_marketId",
          "type": "uint256"
        }
      ],
      "name": "cancelMarket",
      "outputs": [],
      "stateMutability": "nonpayable",
      "type": "function"
    },
    {
      "inputs": [
        {
          "internalType": "uint256",
          "name": "_marketId",
          "type": "uint256"
        },
        {
          "internalType": "bool",
          "name": "_isYes",
          "type": "bool"
        }
      ],
      "name": "cashout",
      "outputs": [],
      "stateMutability": "nonpayable",
      "type": "function"
    },
    {
      "inputs": [
        {
          "internalType": "uint256",
          "name": "_marketId",
          "type": "uint256"
        }
      ],
      "name": "claimRefund",
      "outputs": [],
      "stateMutability": "nonpayable",
      "type": "function"
    },
    {
      "inputs": [
        {
          "internalType": "uint256",
          "name": "_marketId",
          "type": "uint256"
        }
      ],
      "name": "claimWinnings",
      "outputs": [],
      "stateMutability": "nonpayable",
      "type": "function"
    },
    {
      "inputs": [
        {
          "internalType": "string",
          "name": "_question",
          "type": "string"
        },
        {
          "internalType": "string",
          "name": "_category",
          "type": "string"
        },
        {
          "internalType": "string",
          "name": "_competition",
          "type": "string"
        },
        {
          "internalType": "uint256",
          "name": "_eventStartTime",
          "type": "uint256"
        },
        {
          "internalType": "uint256",
          "name": "_resolutionDeadline",
          "type": "uint256"
        },
        {
          "internalType": "uint256",
          "name": "_initialLiquidity",
          "type": "uint256"
        }
      ],
      "name": "createMarket",
      "outputs": [],
      "stateMutability": "nonpayable",
      "type": "function"
    },
    {
      "inputs": [],
      "name": "factory",
      "outputs": [
        {
          "internalType": "address",
          "name": "",
          "type": "address"
        }
      ],
      "stateMutability": "view",
      "type": "function"
    },
    {
      "inputs": [
        {
          "internalType": "uint256",
          "name": "_marketId",
          "type": "uint256"
        }
      ],
      "name": "getMarket",
      "outputs": [
        {
          "components": [
            {
              "internalType": "string",
              "name": "question",
              "type": "string"
            },
            {
              "internalType": "string",
              "name": "category",
              "type": "string"
            },
            {
              "internalType": "string",
              "name": "competition",
              "type": "string"
            },
            {
              "internalType": "uint256",
              "name": "eventStartTime",
              "type": "uint256"
            },
            {
              "internalType": "uint256",
              "name": "resolutionDeadline",
              "type": "uint256"
            },
            {
              "internalType": "uint256",
              "name": "initialLiquidity",
              "type": "uint256"
            },
            {
              "internalType": "uint256",
              "name": "yesPool",
              "type": "uint256"
            },
            {
              "internalType": "uint256",
              "name": "noPool",
              "type": "uint256"
            },
            {
              "internalType": "uint256",
              "name": "totalShares",
              "type": "uint256"
            },
            {
              "internalType": "bool",
              "name": "result",
              "type": "bool"
            },
            {
              "internalType": "enum PredictionMarket.MarketState",
              "name": "state",
              "type": "uint8"
            }
          ],
          "internalType": "struct PredictionMarket.Market",
          "name": "",
          "type": "tuple"
        }
      ],
      "stateMutability": "view",
      "type": "function"
    },
    {
      "inputs": [
        {
          "internalType": "uint256",
          "name": "_marketId",
          "type": "uint256"
        }
      ],
      "name": "getNoPrice",
      "outputs": [
        {
          "internalType": "uint256",
          "name": "",
          "type": "uint256"
        }
      ],
      "stateMutability": "view",
      "type": "function"
    },
    {
      "inputs": [
        {
          "internalType": "uint256",
          "name": "_marketId",
          "type": "uint256"
        },
        {
          "internalType": "address",
          "name": "_user",
          "type": "address"
        }
      ],
      "name": "getPosition",
      "outputs": [
        {
          "components": [
            {
              "internalType": "uint256",
              "name": "yesShares",
              "type": "uint256"
            },
            {
              "internalType": "uint256",
              "name": "noShares",
              "type": "uint256"
            },
            {
              "internalType": "uint256",
              "name": "yesAmountPaid",
              "type": "uint256"
            },
            {
              "internalType": "uint256",
              "name": "noAmountPaid",
              "type": "uint256"
            }
          ],
          "internalType": "struct PredictionMarket.Position",
          "name": "",
          "type": "tuple"
        }
      ],
      "stateMutability": "view",
      "type": "function"
    },
    {
      "inputs": [
        {
          "internalType": "uint256",
          "name": "_marketId",
          "type": "uint256"
        }
      ],
      "name": "getYesPrice",
      "outputs": [
        {
          "internalType": "uint256",
          "name": "",
          "type": "uint256"
        }
      ],
      "stateMutability": "view",
      "type": "function"
    },
    {
      "inputs": [
        {
          "internalType": "uint256",
          "name": "_marketId",
          "type": "uint256"
        }
      ],
      "name": "lockMarket",
      "outputs": [],
      "stateMutability": "nonpayable",
      "type": "function"
    },
    {
      "inputs": [],
      "name": "marketCount",
      "outputs": [
        {
          "internalType": "uint256",
          "name": "",
          "type": "uint256"
        }
      ],
      "stateMutability": "view",
      "type": "function"
    },
    {
      "inputs": [
        {
          "internalType": "uint256",
          "name": "",
          "type": "uint256"
        }
      ],
      "name": "markets",
      "outputs": [
        {
          "internalType": "string",
          "name": "question",
          "type": "string"
        },
        {
          "internalType": "string",
          "name": "category",
          "type": "string"
        },
        {
          "internalType": "string",
          "name": "competition",
          "type": "string"
        },
        {
          "internalType": "uint256",
          "name": "eventStartTime",
          "type": "uint256"
        },
        {
          "internalType": "uint256",
          "name": "resolutionDeadline",
          "type": "uint256"
        },
        {
          "internalType": "uint256",
          "name": "initialLiquidity",
          "type": "uint256"
        },
        {
          "internalType": "uint256",
          "name": "yesPool",
          "type": "uint256"
        },
        {
          "internalType": "uint256",
          "name": "noPool",
          "type": "uint256"
        },
        {
          "internalType": "uint256",
          "name": "totalShares",
          "type": "uint256"
        },
        {
          "internalType": "bool",
          "name": "result",
          "type": "bool"
        },
        {
          "internalType": "enum PredictionMarket.MarketState",
          "name": "state",
          "type": "uint8"
        }
      ],
      "stateMutability": "view",
      "type": "function"
    },
    {
      "inputs": [],
      "name": "owner",
      "outputs": [
        {
          "internalType": "address",
          "name": "",
          "type": "address"
        }
      ],
      "stateMutability": "view",
      "type": "function"
    },
    {
      "inputs": [
        {
          "internalType": "uint256",
          "name": "_marketId",
          "type": "uint256"
        }
      ],
      "name": "pauseMarket",
      "outputs": [],
      "stateMutability": "nonpayable",
      "type": "function"
    },
    {
      "inputs": [
        {
          "internalType": "uint256",
          "name": "",
          "type": "uint256"
        },
        {
          "internalType": "address",
          "name": "",
          "type": "address"
        }
      ],
      "name": "positions",
      "outputs": [
        {
          "internalType": "uint256",
          "name": "yesShares",
          "type": "uint256"
        },
        {
          "internalType": "uint256",
          "name": "noShares",
          "type": "uint256"
        },
        {
          "internalType": "uint256",
          "name": "yesAmountPaid",
          "type": "uint256"
        },
        {
          "internalType": "uint256",
          "name": "noAmountPaid",
          "type": "uint256"
        }
      ],
      "stateMutability": "view",
      "type": "function"
    },
    {
      "inputs": [
        {
          "internalType": "uint256",
          "name": "_marketId",
          "type": "uint256"
        },
        {
          "internalType": "bool",
          "name": "_result",
          "type": "bool"
        }
      ],
      "name": "proposeResult",
      "outputs": [],
      "stateMutability": "nonpayable",
      "type": "function"
    },
    {
      "inputs": [],
      "name": "renounceOwnership",
      "outputs": [],
      "stateMutability": "nonpayable",
      "type": "function"
    },
    {
      "inputs": [
        {
          "internalType": "uint256",
          "name": "_marketId",
          "type": "uint256"
        }
      ],
      "name": "resolveMarket",
      "outputs": [],
      "stateMutability": "nonpayable",
      "type": "function"
    },
    {
      "inputs": [
        {
          "internalType": "uint256",
          "name": "",
          "type": "uint256"
        }
      ],
      "name": "totalCashedOutNo",
      "outputs": [
        {
          "internalType": "uint256",
          "name": "",
          "type": "uint256"
        }
      ],
      "stateMutability": "view",
      "type": "function"
    },
    {
      "inputs": [
        {
          "internalType": "uint256",
          "name": "",
          "type": "uint256"
        }
      ],
      "name": "totalCashedOutYes",
      "outputs": [
        {
          "internalType": "uint256",
          "name": "",
          "type": "uint256"
        }
      ],
      "stateMutability": "view",
      "type": "function"
    },
    {
      "inputs": [
        {
          "internalType": "address",
          "name": "newOwner",
          "type": "address"
        }
      ],
      "name": "transferOwnership",
      "outputs": [],
      "stateMutability": "nonpayable",
      "type": "function"
    },
    {
      "inputs": [],
      "name": "treasury",
      "outputs": [
        {
          "internalType": "address",
          "name": "",
          "type": "address"
        }
      ],
      "stateMutability": "view",
      "type": "function"
    },
    {
      "inputs": [
        {
          "internalType": "uint256",
          "name": "_marketId",
          "type": "uint256"
        }
      ],
      "name": "unpauseMarket",
      "outputs": [],
      "stateMutability": "nonpayable",
      "type": "function"
    },
    {
      "inputs": [],
      "name": "usdc",
      "outputs": [
        {
          "internalType": "contract IERC20",
          "name": "",
          "type": "address"
        }
      ],
      "stateMutability": "view",
      "type": "function"
    }
  ],
  "bytecode": "0x608060405234801561001057600080fd5b506040516150e93803806150e983398181016040528101906100329190610301565b33600073ffffffffffffffffffffffffffffffffffffffff168173ffffffffffffffffffffffffffffffffffffffff16036100a55760006040517f1e4fbdf700000000000000000000000000000000000000000000000000000000815260040161009c9190610363565b60405180910390fd5b6100b4816101a560201b60201c565b5060016100d36100c861026960201b60201c565b61029460201b60201c565b6000018190555082600160006101000a81548173ffffffffffffffffffffffffffffffffffffffff021916908373ffffffffffffffffffffffffffffffffffffffff16021790555081600260006101000a81548173ffffffffffffffffffffffffffffffffffffffff021916908373ffffffffffffffffffffffffffffffffffffffff16021790555080600360006101000a81548173ffffffffffffffffffffffffffffffffffffffff021916908373ffffffffffffffffffffffffffffffffffffffff16021790555050505061037e565b60008060009054906101000a900473ffffffffffffffffffffffffffffffffffffffff169050816000806101000a81548173ffffffffffffffffffffffffffffffffffffffff021916908373ffffffffffffffffffffffffffffffffffffffff1602179055508173ffffffffffffffffffffffffffffffffffffffff168173ffffffffffffffffffffffffffffffffffffffff167f8be0079c531659141344cd1fd0a4f28419497f9722a3daafe3b4186f6b6457e060405160405180910390a35050565b60007f9b779b17422d0df92223018b32b4d1fa46e071723d6817e2486d003becc55f0060001b905090565b6000819050919050565b600080fd5b600073ffffffffffffffffffffffffffffffffffffffff82169050919050565b60006102ce826102a3565b9050919050565b6102de816102c3565b81146102e957600080fd5b50565b6000815190506102fb816102d5565b92915050565b60008060006060848603121561031a5761031961029e565b5b6000610328868287016102ec565b9350506020610339868287016102ec565b925050604061034a868287016102ec565b9150509250925092565b61035d816102c3565b82525050565b60006020820190506103786000830184610354565b92915050565b614d5c8061038d6000396000f3fe608060405234801561001057600080fd5b50600436106102065760003560e01c80638da5cb5b1161011a578063cce7aa5f116100ad578063eb44fdd31161007c578063eb44fdd3146105e9578063ec97908214610619578063ef536d7114610637578063f2fde38b14610653578063fc12524c1461066f57610206565b8063cce7aa5f14610538578063d29f541d14610556578063e26186b414610586578063e684d718146105b657610206565b8063bb601b5e116100e9578063bb601b5e146104b0578063c3546485146104ce578063c45a0155146104fe578063c9d1e6ee1461051c57610206565b80638da5cb5b1461040c57806399eb49b91461042a5780639ba85fae14610446578063b1283e771461047657610206565b80636399d03d1161019d5780636d6ba83f1161016c5780636d6ba83f1461037b578063715018a6146103995780637c16cd9e146103a357806387784844146103bf5780638ccc62f7146103db57610206565b80636399d03d14610309578063677bd9ff146103255780636b5686f0146103415780636d04c6441461035f57610206565b80634828e258116101d95780634828e258146102935780635016e636146102b15780635b7baf64146102cf57806361d027b3146102eb57610206565b80630f6dc9d61461020b5780632982de0d1461023b57806339b46372146102595780633e413bee14610275575b600080fd5b610225600480360381019061022091906134d6565b61068b565b6040516102329190613512565b60405180910390f35b6102436106a3565b6040516102509190613512565b60405180910390f35b610273600480360381019061026e9190613565565b6106a8565b005b61027d610bf3565b60405161028a9190613637565b60405180910390f35b61029b610c19565b6040516102a89190613512565b60405180910390f35b6102b9610c1e565b6040516102c69190613512565b60405180910390f35b6102e960048036038101906102e491906134d6565b610c24565b005b6102f3610f14565b6040516103009190613673565b60405180910390f35b610323600480360381019061031e91906134d6565b610f3a565b005b61033f600480360381019061033a91906134d6565b6110b5565b005b610349611554565b6040516103569190613512565b60405180910390f35b6103796004803603810190610374919061368e565b611559565b005b6103836116e0565b6040516103909190613512565b60405180910390f35b6103a16116e8565b005b6103bd60048036038101906103b891906134d6565b6116fc565b005b6103d960048036038101906103d491906134d6565b6119b3565b005b6103f560048036038101906103f09190613565565b611b09565b6040516104039291906136ce565b60405180910390f35b610414611ca8565b6040516104219190613673565b60405180910390f35b610444600480360381019061043f919061375c565b611cd1565b005b610460600480360381019061045b91906134d6565b612124565b60405161046d9190613512565b60405180910390f35b610490600480360381019061048b91906134d6565b6121c0565b6040516104a79b9a99989796959493929190613961565b60405180910390f35b6104b86123cc565b6040516104c59190613512565b60405180910390f35b6104e860048036038101906104e391906134d6565b6123d1565b6040516104f59190613512565b60405180910390f35b61050661246d565b6040516105139190613673565b60405180910390f35b610536600480360381019061053191906134d6565b612493565b005b61054061267f565b60405161054d9190613512565b60405180910390f35b610570600480360381019061056b9190613a4d565b612686565b60405161057d9190613af1565b60405180910390f35b6105a0600480360381019061059b91906134d6565b61275f565b6040516105ad9190613512565b60405180910390f35b6105d060048036038101906105cb9190613a4d565b612777565b6040516105e09493929190613b0c565b60405180910390f35b61060360048036038101906105fe91906134d6565b6127b4565b6040516106109190613cb6565b60405180910390f35b610621612a70565b60405161062e9190613512565b60405180910390f35b610651600480360381019061064c919061368e565b612a76565b005b61066d60048036038101906106689190613cd8565b612fff565b005b610689600480360381019061068491906134d6565b613085565b005b60086020528060005260406000206000915090505481565b600381565b6106b06131db565b8260045481106106f5576040517f08c379a00000000000000000000000000000000000000000000000000000000081526004016106ec90613d51565b60405180910390fd5b83600080600581111561070b5761070a6138ea565b5b6005600084815260200190815260200160002060090160019054906101000a900460ff166005811115610741576107406138ea565b5b14610781576040517f08c379a000000000000000000000000000000000000000000000000000000000815260040161077890613dbd565b60405180910390fd5b6000600560008881526020019081526020016000209050806003015442106107de576040517f08c379a00000000000000000000000000000000000000000000000000000000081526004016107d590613e29565b60405180910390fd5b60008511610821576040517f08c379a000000000000000000000000000000000000000000000000000000000815260040161081890613e95565b60405180910390fd5b600160009054906101000a900473ffffffffffffffffffffffffffffffffffffffff1673ffffffffffffffffffffffffffffffffffffffff166323b872dd3330886040518463ffffffff1660e01b815260040161088093929190613eb5565b6020604051808303816000875af115801561089f573d6000803e3d6000fd5b505050506040513d601f19601f820116820180604052508101906108c39190613f01565b610902576040517f08c379a00000000000000000000000000000000000000000000000000000000081526004016108f990613f7a565b60405180910390fd5b6000816007015482600601546109189190613fc9565b905060008715610a4b57606783600601546109339190613ffd565b606483896109419190613ffd565b61094b9190613ffd565b610955919061406e565b90508683600601600082825461096b9190613fc9565b9250508190555080600660008b815260200190815260200160002060003373ffffffffffffffffffffffffffffffffffffffff1673ffffffffffffffffffffffffffffffffffffffff16815260200190815260200160002060000160008282546109d59190613fc9565b9250508190555086600660008b815260200190815260200160002060003373ffffffffffffffffffffffffffffffffffffffff1673ffffffffffffffffffffffffffffffffffffffff1681526020019081526020016000206002016000828254610a3f9190613fc9565b92505081905550610b70565b60678360070154610a5c9190613ffd565b60648389610a6a9190613ffd565b610a749190613ffd565b610a7e919061406e565b905086836007016000828254610a949190613fc9565b9250508190555080600660008b815260200190815260200160002060003373ffffffffffffffffffffffffffffffffffffffff1673ffffffffffffffffffffffffffffffffffffffff1681526020019081526020016000206001016000828254610afe9190613fc9565b9250508190555086600660008b815260200190815260200160002060003373ffffffffffffffffffffffffffffffffffffffff1673ffffffffffffffffffffffffffffffffffffffff1681526020019081526020016000206003016000828254610b689190613fc9565b925050819055505b80836008016000828254610b849190613fc9565b925050819055503373ffffffffffffffffffffffffffffffffffffffff16897f0830b253517c7681cb33c8586fff29355b4c027f346bf597887f95162d008fdb8a8a8542604051610bd8949392919061409f565b60405180910390a3505050505050610bee6131fe565b505050565b600160009054906101000a900473ffffffffffffffffffffffffffffffffffffffff1681565b600a81565b61070881565b610c2c6131db565b806004548110610c71576040517f08c379a0000000000000000000000000000000000000000000000000000000008152600401610c6890613d51565b60405180910390fd5b816005806005811115610c8757610c866138ea565b5b6005600084815260200190815260200160002060090160019054906101000a900460ff166005811115610cbd57610cbc6138ea565b5b14610cfd576040517f08c379a0000000000000000000000000000000000000000000000000000000008152600401610cf490613dbd565b60405180910390fd5b60006006600086815260200190815260200160002060003373ffffffffffffffffffffffffffffffffffffffff1673ffffffffffffffffffffffffffffffffffffffff1681526020019081526020016000209050600081600301548260020154610d679190613fc9565b905060008111610dac576040517f08c379a0000000000000000000000000000000000000000000000000000000008152600401610da390614130565b60405180910390fd5b60008260000181905550600082600101819055506000826002018190555060008260030181905550600160009054906101000a900473ffffffffffffffffffffffffffffffffffffffff1673ffffffffffffffffffffffffffffffffffffffff1663a9059cbb33836040518363ffffffff1660e01b8152600401610e31929190614150565b6020604051808303816000875af1158015610e50573d6000803e3d6000fd5b505050506040513d601f19601f82011682018060405250810190610e749190613f01565b610eb3576040517f08c379a0000000000000000000000000000000000000000000000000000000008152600401610eaa906141c5565b60405180910390fd5b3373ffffffffffffffffffffffffffffffffffffffff16867f8faa8f78dba131fcf5a374c153d58b8f646053b7c2789321a5449f127258e1cd8342604051610efc9291906136ce565b60405180910390a35050505050610f116131fe565b50565b600260009054906101000a900473ffffffffffffffffffffffffffffffffffffffff1681565b610f42613219565b806004548110610f87576040517f08c379a0000000000000000000000000000000000000000000000000000000008152600401610f7e90613d51565b60405180910390fd5b816002806005811115610f9d57610f9c6138ea565b5b6005600084815260200190815260200160002060090160019054906101000a900460ff166005811115610fd357610fd26138ea565b5b14611013576040517f08c379a000000000000000000000000000000000000000000000000000000000815260040161100a90613dbd565b60405180910390fd5b60046005600086815260200190815260200160002060090160016101000a81548160ff0219169083600581111561104d5761104c6138ea565b5b0217905550837f6d4d544f5a6dcf38d77a232d3ef7358625c74877a1ad954fcb507872e7a05eaf6005600087815260200190815260200160002060090160009054906101000a900460ff16426040516110a79291906141e5565b60405180910390a250505050565b6110bd6131db565b806004548110611102576040517f08c379a00000000000000000000000000000000000000000000000000000000081526004016110f990613d51565b60405180910390fd5b816004806005811115611118576111176138ea565b5b6005600084815260200190815260200160002060090160019054906101000a900460ff16600581111561114e5761114d6138ea565b5b1461118e576040517f08c379a000000000000000000000000000000000000000000000000000000000815260040161118590613dbd565b60405180910390fd5b600060056000868152602001908152602001600020905060006006600087815260200190815260200160002060003373ffffffffffffffffffffffffffffffffffffffff1673ffffffffffffffffffffffffffffffffffffffff168152602001908152602001600020905060008060008460090160009054906101000a900460ff161561124357836000015492508360020154905084600701549150600084600001819055506000846002018190555061126d565b83600101549250836003015490508460060154915060008460010181905550600084600301819055505b600083116112b0576040517f08c379a00000000000000000000000000000000000000000000000000000000081526004016112a79061425a565b60405180910390fd5b6000856008015483856112c39190613ffd565b6112cd919061406e565b9050600060646003836112e09190613ffd565b6112ea919061406e565b9050600081836112fa919061427a565b90506000818561130a9190613fc9565b9050600160009054906101000a900473ffffffffffffffffffffffffffffffffffffffff1673ffffffffffffffffffffffffffffffffffffffff1663a9059cbb33836040518363ffffffff1660e01b8152600401611369929190614150565b6020604051808303816000875af1158015611388573d6000803e3d6000fd5b505050506040513d601f19601f820116820180604052508101906113ac9190613f01565b6113eb576040517f08c379a00000000000000000000000000000000000000000000000000000000081526004016113e2906142fa565b60405180910390fd5b600160009054906101000a900473ffffffffffffffffffffffffffffffffffffffff1673ffffffffffffffffffffffffffffffffffffffff1663a9059cbb600260009054906101000a900473ffffffffffffffffffffffffffffffffffffffff16856040518363ffffffff1660e01b815260040161146a929190614150565b6020604051808303816000875af1158015611489573d6000803e3d6000fd5b505050506040513d601f19601f820116820180604052508101906114ad9190613f01565b6114ec576040517f08c379a00000000000000000000000000000000000000000000000000000000081526004016114e390614366565b60405180910390fd5b3373ffffffffffffffffffffffffffffffffffffffff168d7f6256309dc4c6375473b26b31fc0e88b0ca9ebca0e558d39fec5aa96863ad40cb83426040516115359291906136ce565b60405180910390a35050505050505050505050506115516131fe565b50565b604681565b611561613219565b8160045481106115a6576040517f08c379a000000000000000000000000000000000000000000000000000000000815260040161159d90613d51565b60405180910390fd5b8260018060058111156115bc576115bb6138ea565b5b6005600084815260200190815260200160002060090160019054906101000a900460ff1660058111156115f2576115f16138ea565b5b14611632576040517f08c379a000000000000000000000000000000000000000000000000000000000815260040161162990613dbd565b60405180910390fd5b836005600087815260200190815260200160002060090160006101000a81548160ff02191690831515021790555060026005600087815260200190815260200160002060090160016101000a81548160ff0219169083600581111561169a576116996138ea565b5b0217905550847ff8d1bea027e4bb927b76337de965165989acc31362d743be6e9e617e6b9f77fa85426040516116d19291906141e5565b60405180910390a25050505050565b631dcd650081565b6116f0613219565b6116fa60006132a0565b565b611704613219565b806004548110611749576040517f08c379a000000000000000000000000000000000000000000000000000000000815260040161174090613d51565b60405180910390fd5b60006005600084815260200190815260200160002060090160019054906101000a900460ff16905060006005811115611785576117846138ea565b5b816005811115611798576117976138ea565b5b14806117c85750600160058111156117b3576117b26138ea565b5b8160058111156117c6576117c56138ea565b5b145b806117f75750600260058111156117e2576117e16138ea565b5b8160058111156117f5576117f46138ea565b5b145b611836576040517f08c379a000000000000000000000000000000000000000000000000000000000815260040161182d906143d2565b60405180910390fd5b600580600085815260200190815260200160002060090160016101000a81548160ff0219169083600581111561186f5761186e6138ea565b5b0217905550600060056000858152602001908152602001600020600501549050600160009054906101000a900473ffffffffffffffffffffffffffffffffffffffff1673ffffffffffffffffffffffffffffffffffffffff1663a9059cbb6118d5611ca8565b836040518363ffffffff1660e01b81526004016118f3929190614150565b6020604051808303816000875af1158015611912573d6000803e3d6000fd5b505050506040513d601f19601f820116820180604052508101906119369190613f01565b611975576040517f08c379a000000000000000000000000000000000000000000000000000000000815260040161196c9061443e565b60405180910390fd5b837fe3285420e15d5e840b024eca291c363bac53e810fc7f58b4c655c95ce40acd3b426040516119a59190613512565b60405180910390a250505050565b6119bb613219565b806004548110611a00576040517f08c379a00000000000000000000000000000000000000000000000000000000081526004016119f790613d51565b60405180910390fd5b816001806005811115611a1657611a156138ea565b5b6005600084815260200190815260200160002060090160019054906101000a900460ff166005811115611a4c57611a4b6138ea565b5b14611a8c576040517f08c379a0000000000000000000000000000000000000000000000000000000008152600401611a8390613dbd565b60405180910390fd5b60006005600086815260200190815260200160002060090160016101000a81548160ff02191690836005811115611ac657611ac56138ea565b5b0217905550837fe0715ec8ba0b8819553361daadd6455bc016100b85464f4da2f3fb076d92b30742604051611afb9190613512565b60405180910390a250505050565b600080846004548110611b51576040517f08c379a0000000000000000000000000000000000000000000000000000000008152600401611b4890613d51565b60405180910390fd5b6000600560008881526020019081526020016000209050600081600701548260060154611b7e9190613fc9565b90508615611c135760678260060154611b979190613ffd565b60648288611ba59190613ffd565b611baf9190613ffd565b611bb9919061406e565b94506000858360080154611bcd9190613fc9565b905060008103611be557858795509550505050611c9f565b8681846007015488611bf79190613ffd565b611c01919061406e565b611c0b9190613fc9565b945050611c9c565b60678260070154611c249190613ffd565b60648288611c329190613ffd565b611c3c9190613ffd565b611c46919061406e565b94506000858360080154611c5a9190613fc9565b905060008103611c7257858795509550505050611c9f565b8681846006015488611c849190613ffd565b611c8e919061406e565b611c989190613fc9565b9450505b50505b50935093915050565b60008060009054906101000a900473ffffffffffffffffffffffffffffffffffffffff16905090565b611cd9613219565b611ce16131db565b428311611d23576040517f08c379a0000000000000000000000000000000000000000000000000000000008152600401611d1a906144aa565b60405180910390fd5b828211611d65576040517f08c379a0000000000000000000000000000000000000000000000000000000008152600401611d5c9061453c565b60405180910390fd5b60008111611da8576040517f08c379a0000000000000000000000000000000000000000000000000000000008152600401611d9f906145a8565b60405180910390fd5b600160009054906101000a900473ffffffffffffffffffffffffffffffffffffffff1673ffffffffffffffffffffffffffffffffffffffff166323b872dd3330846040518463ffffffff1660e01b8152600401611e0793929190613eb5565b6020604051808303816000875af1158015611e26573d6000803e3d6000fd5b505050506040513d601f19601f82011682018060405250810190611e4a9190613f01565b611e89576040517f08c379a0000000000000000000000000000000000000000000000000000000008152600401611e8090614614565b60405180910390fd5b600060046000815480929190611e9e90614634565b9190505590506040518061016001604052808b8b8080601f016020809104026020016040519081016040528093929190818152602001838380828437600081840152601f19601f82011690508083019250505050505050815260200189898080601f016020809104026020016040519081016040528093929190818152602001838380828437600081840152601f19601f82011690508083019250505050505050815260200187878080601f016020809104026020016040519081016040528093929190818152602001838380828437600081840152601f19601f820116905080830192505050505050508152602001858152602001848152602001838152602001600284611fad919061406e565b8152602001600284611fbf919061406e565b81526020016000815260200160001515815260200160006005811115611fe857611fe76138ea565b5b81525060056000838152602001908152602001600020600082015181600001908161201391906148ad565b50602082015181600101908161202991906148ad565b50604082015181600201908161203f91906148ad565b50606082015181600301556080820151816004015560a0820151816005015560c0820151816006015560e0820151816007015561010082015181600801556101208201518160090160006101000a81548160ff0219169083151502179055506101408201518160090160016101000a81548160ff021916908360058111156120ca576120c96138ea565b5b0217905550905050807f208e61cb94f388de8317e3bf4569be2a912366b1d5a8df15cac962fea10cea268b8b854260405161210894939291906149bb565b60405180910390a2506121196131fe565b505050505050505050565b600081600454811061216b576040517f08c379a000000000000000000000000000000000000000000000000000000000815260040161216290613d51565b60405180910390fd5b60006005600085815260200190815260200160002090506000816007015482600601546121989190613fc9565b905080606783600601546121ac9190613ffd565b6121b6919061406e565b9350505050919050565b60056020528060005260406000206000915090508060000180546121e3906146da565b80601f016020809104026020016040519081016040528092919081815260200182805461220f906146da565b801561225c5780601f106122315761010080835404028352916020019161225c565b820191906000526020600020905b81548152906001019060200180831161223f57829003601f168201915b505050505090806001018054612271906146da565b80601f016020809104026020016040519081016040528092919081815260200182805461229d906146da565b80156122ea5780601f106122bf576101008083540402835291602001916122ea565b820191906000526020600020905b8154815290600101906020018083116122cd57829003601f168201915b5050505050908060020180546122ff906146da565b80601f016020809104026020016040519081016040528092919081815260200182805461232b906146da565b80156123785780601f1061234d57610100808354040283529160200191612378565b820191906000526020600020905b81548152906001019060200180831161235b57829003601f168201915b5050505050908060030154908060040154908060050154908060060154908060070154908060080154908060090160009054906101000a900460ff16908060090160019054906101000a900460ff1690508b565b606781565b6000816004548110612418576040517f08c379a000000000000000000000000000000000000000000000000000000000815260040161240f90613d51565b60405180910390fd5b60006005600085815260200190815260200160002090506000816007015482600601546124459190613fc9565b905080606783600701546124599190613ffd565b612463919061406e565b9350505050919050565b600360009054906101000a900473ffffffffffffffffffffffffffffffffffffffff1681565b61249b613219565b8060045481106124e0576040517f08c379a00000000000000000000000000000000000000000000000000000000081526004016124d790613d51565b60405180910390fd5b8160008060058111156124f6576124f56138ea565b5b6005600084815260200190815260200160002060090160019054906101000a900460ff16600581111561252c5761252b6138ea565b5b1461256c576040517f08c379a000000000000000000000000000000000000000000000000000000000815260040161256390613dbd565b60405180910390fd5b600060056000868152602001908152602001600020905080600301544210156125ca576040517f08c379a00000000000000000000000000000000000000000000000000000000081526004016125c190614a47565b60405180910390fd5b60008160050154826007015483600601546125e59190613fc9565b6125ef919061427a565b9050631dcd6500811015612638576040517f08c379a000000000000000000000000000000000000000000000000000000000815260040161262f90614ab3565b60405180910390fd5b60016005600088815260200190815260200160002060090160016101000a81548160ff02191690836005811115612672576126716138ea565b5b0217905550505050505050565b62093a8081565b61268e613400565b8260045481106126d3576040517f08c379a00000000000000000000000000000000000000000000000000000000081526004016126ca90613d51565b60405180910390fd5b6006600085815260200190815260200160002060008473ffffffffffffffffffffffffffffffffffffffff1673ffffffffffffffffffffffffffffffffffffffff16815260200190815260200160002060405180608001604052908160008201548152602001600182015481526020016002820154815260200160038201548152505091505092915050565b60076020528060005260406000206000915090505481565b6006602052816000526040600020602052806000526040600020600091509150508060000154908060010154908060020154908060030154905084565b6127bc613428565b816004548110612801576040517f08c379a00000000000000000000000000000000000000000000000000000000081526004016127f890613d51565b60405180910390fd5b6005600084815260200190815260200160002060405180610160016040529081600082018054612830906146da565b80601f016020809104026020016040519081016040528092919081815260200182805461285c906146da565b80156128a95780601f1061287e576101008083540402835291602001916128a9565b820191906000526020600020905b81548152906001019060200180831161288c57829003601f168201915b505050505081526020016001820180546128c2906146da565b80601f01602080910402602001604051908101604052809291908181526020018280546128ee906146da565b801561293b5780601f106129105761010080835404028352916020019161293b565b820191906000526020600020905b81548152906001019060200180831161291e57829003601f168201915b50505050508152602001600282018054612954906146da565b80601f0160208091040260200160405190810160405280929190818152602001828054612980906146da565b80156129cd5780601f106129a2576101008083540402835291602001916129cd565b820191906000526020600020905b8154815290600101906020018083116129b057829003601f168201915b505050505081526020016003820154815260200160048201548152602001600582015481526020016006820154815260200160078201548152602001600882015481526020016009820160009054906101000a900460ff161515151581526020016009820160019054906101000a900460ff166005811115612a5257612a516138ea565b5b6005811115612a6457612a636138ea565b5b81525050915050919050565b60045481565b612a7e6131db565b816004548110612ac3576040517f08c379a0000000000000000000000000000000000000000000000000000000008152600401612aba90613d51565b60405180910390fd5b826000806005811115612ad957612ad86138ea565b5b6005600084815260200190815260200160002060090160019054906101000a900460ff166005811115612b0f57612b0e6138ea565b5b14612b4f576040517f08c379a0000000000000000000000000000000000000000000000000000000008152600401612b4690613dbd565b60405180910390fd5b60006005600087815260200190815260200160002090506107088160030154612b78919061427a565b4210612bb9576040517f08c379a0000000000000000000000000000000000000000000000000000000008152600401612bb090614b1f565b60405180910390fd5b60006006600088815260200190815260200160002060003373ffffffffffffffffffffffffffffffffffffffff1673ffffffffffffffffffffffffffffffffffffffff16815260200190815260200160002090506000808715612d55576000836000015411612c5d576040517f08c379a0000000000000000000000000000000000000000000000000000000008152600401612c5490614b8b565b60405180910390fd5b8260000154915082600201549050600081600760008c815260200190815260200160002054612c8c9190613fc9565b9050606460468660060154612ca19190613ffd565b612cab919061406e565b811115612ced576040517f08c379a0000000000000000000000000000000000000000000000000000000008152600401612ce490614bf7565b60405180910390fd5b80600760008c815260200190815260200160002081905550600084600001819055506000846002018190555081856006016000828254612d2d919061427a565b9250508190555082856008016000828254612d48919061427a565b9250508190555050612e90565b6000836001015411612d9c576040517f08c379a0000000000000000000000000000000000000000000000000000000008152600401612d9390614c63565b60405180910390fd5b8260010154915082600301549050600081600860008c815260200190815260200160002054612dcb9190613fc9565b9050606460468660070154612de09190613ffd565b612dea919061406e565b811115612e2c576040517f08c379a0000000000000000000000000000000000000000000000000000000008152600401612e2390614bf7565b60405180910390fd5b80600860008c815260200190815260200160002081905550600084600101819055506000846003018190555081856007016000828254612e6c919061427a565b9250508190555082856008016000828254612e87919061427a565b92505081905550505b60006064600a6064612ea2919061427a565b83612ead9190613ffd565b612eb7919061406e565b9050600160009054906101000a900473ffffffffffffffffffffffffffffffffffffffff1673ffffffffffffffffffffffffffffffffffffffff1663a9059cbb33836040518363ffffffff1660e01b8152600401612f16929190614150565b6020604051808303816000875af1158015612f35573d6000803e3d6000fd5b505050506040513d601f19601f82011682018060405250810190612f599190613f01565b612f98576040517f08c379a0000000000000000000000000000000000000000000000000000000008152600401612f8f90614ccf565b60405180910390fd5b3373ffffffffffffffffffffffffffffffffffffffff168a7faa104f8044bf21a9243fa0f42262bf99345a301167238ed9c00db4a1524ad66d8b8442604051612fe393929190614cef565b60405180910390a35050505050505050612ffb6131fe565b5050565b613007613219565b600073ffffffffffffffffffffffffffffffffffffffff168173ffffffffffffffffffffffffffffffffffffffff16036130795760006040517f1e4fbdf70000000000000000000000000000000000000000000000000000000081526004016130709190613673565b60405180910390fd5b613082816132a0565b50565b61308d613219565b8060045481106130d2576040517f08c379a00000000000000000000000000000000000000000000000000000000081526004016130c990613d51565b60405180910390fd5b8160008060058111156130e8576130e76138ea565b5b6005600084815260200190815260200160002060090160019054906101000a900460ff16600581111561311e5761311d6138ea565b5b1461315e576040517f08c379a000000000000000000000000000000000000000000000000000000000815260040161315590613dbd565b60405180910390fd5b60016005600086815260200190815260200160002060090160016101000a81548160ff02191690836005811115613198576131976138ea565b5b0217905550837fb8f06a25cc84c52718941dad0357402df13e19fd951ab15179c180b414b86621426040516131cd9190613512565b60405180910390a250505050565b6131e3613364565b60026131f56131f06133a5565b6133d0565b60000181905550565b600161321061320b6133a5565b6133d0565b60000181905550565b6132216133da565b73ffffffffffffffffffffffffffffffffffffffff1661323f611ca8565b73ffffffffffffffffffffffffffffffffffffffff161461329e576132626133da565b6040517f118cdaa70000000000000000000000000000000000000000000000000000000081526004016132959190613673565b60405180910390fd5b565b60008060009054906101000a900473ffffffffffffffffffffffffffffffffffffffff169050816000806101000a81548173ffffffffffffffffffffffffffffffffffffffff021916908373ffffffffffffffffffffffffffffffffffffffff1602179055508173ffffffffffffffffffffffffffffffffffffffff168173ffffffffffffffffffffffffffffffffffffffff167f8be0079c531659141344cd1fd0a4f28419497f9722a3daafe3b4186f6b6457e060405160405180910390a35050565b61336c6133e2565b156133a3576040517f3ee5aeb500000000000000000000000000000000000000000000000000000000815260040160405180910390fd5b565b60007f9b779b17422d0df92223018b32b4d1fa46e071723d6817e2486d003becc55f0060001b905090565b6000819050919050565b600033905090565b600060026133f66133f16133a5565b6133d0565b6000015414905090565b6040518060800160405280600081526020016000815260200160008152602001600081525090565b604051806101600160405280606081526020016060815260200160608152602001600081526020016000815260200160008152602001600081526020016000815260200160008152602001600015158152602001600060058111156134905761348f6138ea565b5b81525090565b600080fd5b600080fd5b6000819050919050565b6134b3816134a0565b81146134be57600080fd5b50565b6000813590506134d0816134aa565b92915050565b6000602082840312156134ec576134eb613496565b5b60006134fa848285016134c1565b91505092915050565b61350c816134a0565b82525050565b60006020820190506135276000830184613503565b92915050565b60008115159050919050565b6135428161352d565b811461354d57600080fd5b50565b60008135905061355f81613539565b92915050565b60008060006060848603121561357e5761357d613496565b5b600061358c868287016134c1565b935050602061359d86828701613550565b92505060406135ae868287016134c1565b9150509250925092565b600073ffffffffffffffffffffffffffffffffffffffff82169050919050565b6000819050919050565b60006135fd6135f86135f3846135b8565b6135d8565b6135b8565b9050919050565b600061360f826135e2565b9050919050565b600061362182613604565b9050919050565b61363181613616565b82525050565b600060208201905061364c6000830184613628565b92915050565b600061365d826135b8565b9050919050565b61366d81613652565b82525050565b60006020820190506136886000830184613664565b92915050565b600080604083850312156136a5576136a4613496565b5b60006136b3858286016134c1565b92505060206136c485828601613550565b9150509250929050565b60006040820190506136e36000830185613503565b6136f06020830184613503565b9392505050565b600080fd5b600080fd5b600080fd5b60008083601f84011261371c5761371b6136f7565b5b8235905067ffffffffffffffff811115613739576137386136fc565b5b60208301915083600182028301111561375557613754613701565b5b9250929050565b600080600080600080600080600060c08a8c03121561377e5761377d613496565b5b60008a013567ffffffffffffffff81111561379c5761379b61349b565b5b6137a88c828d01613706565b995099505060208a013567ffffffffffffffff8111156137cb576137ca61349b565b5b6137d78c828d01613706565b975097505060408a013567ffffffffffffffff8111156137fa576137f961349b565b5b6138068c828d01613706565b955095505060606138198c828d016134c1565b935050608061382a8c828d016134c1565b92505060a061383b8c828d016134c1565b9150509295985092959850929598565b600081519050919050565b600082825260208201905092915050565b60005b8381101561388557808201518184015260208101905061386a565b60008484015250505050565b6000601f19601f8301169050919050565b60006138ad8261384b565b6138b78185613856565b93506138c7818560208601613867565b6138d081613891565b840191505092915050565b6138e48161352d565b82525050565b7f4e487b7100000000000000000000000000000000000000000000000000000000600052602160045260246000fd5b6006811061392a576139296138ea565b5b50565b600081905061393b82613919565b919050565b600061394b8261392d565b9050919050565b61395b81613940565b82525050565b600061016082019050818103600083015261397c818e6138a2565b90508181036020830152613990818d6138a2565b905081810360408301526139a4818c6138a2565b90506139b3606083018b613503565b6139c0608083018a613503565b6139cd60a0830189613503565b6139da60c0830188613503565b6139e760e0830187613503565b6139f5610100830186613503565b613a036101208301856138db565b613a11610140830184613952565b9c9b505050505050505050505050565b613a2a81613652565b8114613a3557600080fd5b50565b600081359050613a4781613a21565b92915050565b60008060408385031215613a6457613a63613496565b5b6000613a72858286016134c1565b9250506020613a8385828601613a38565b9150509250929050565b613a96816134a0565b82525050565b608082016000820151613ab26000850182613a8d565b506020820151613ac56020850182613a8d565b506040820151613ad86040850182613a8d565b506060820151613aeb6060850182613a8d565b50505050565b6000608082019050613b066000830184613a9c565b92915050565b6000608082019050613b216000830187613503565b613b2e6020830186613503565b613b3b6040830185613503565b613b486060830184613503565b95945050505050565b600082825260208201905092915050565b6000613b6d8261384b565b613b778185613b51565b9350613b87818560208601613867565b613b9081613891565b840191505092915050565b613ba48161352d565b82525050565b613bb381613940565b82525050565b6000610160830160008301518482036000860152613bd78282613b62565b91505060208301518482036020860152613bf18282613b62565b91505060408301518482036040860152613c0b8282613b62565b9150506060830151613c206060860182613a8d565b506080830151613c336080860182613a8d565b5060a0830151613c4660a0860182613a8d565b5060c0830151613c5960c0860182613a8d565b5060e0830151613c6c60e0860182613a8d565b50610100830151613c81610100860182613a8d565b50610120830151613c96610120860182613b9b565b50610140830151613cab610140860182613baa565b508091505092915050565b60006020820190508181036000830152613cd08184613bb9565b905092915050565b600060208284031215613cee57613ced613496565b5b6000613cfc84828501613a38565b91505092915050565b7f4d61726b657420646f6573206e6f742065786973740000000000000000000000600082015250565b6000613d3b601583613856565b9150613d4682613d05565b602082019050919050565b60006020820190508181036000830152613d6a81613d2e565b9050919050565b7f496e76616c6964206d61726b6574207374617465000000000000000000000000600082015250565b6000613da7601483613856565b9150613db282613d71565b602082019050919050565b60006020820190508181036000830152613dd681613d9a565b9050919050565b7f4576656e7420616c726561647920737461727465640000000000000000000000600082015250565b6000613e13601583613856565b9150613e1e82613ddd565b602082019050919050565b60006020820190508181036000830152613e4281613e06565b9050919050565b7f416d6f756e74206d7573742062652067726561746572207468616e207a65726f600082015250565b6000613e7f602083613856565b9150613e8a82613e49565b602082019050919050565b60006020820190508181036000830152613eae81613e72565b9050919050565b6000606082019050613eca6000830186613664565b613ed76020830185613664565b613ee46040830184613503565b949350505050565b600081519050613efb81613539565b92915050565b600060208284031215613f1757613f16613496565b5b6000613f2584828501613eec565b91505092915050565b7f5472616e73666572206661696c65640000000000000000000000000000000000600082015250565b6000613f64600f83613856565b9150613f6f82613f2e565b602082019050919050565b60006020820190508181036000830152613f9381613f57565b9050919050565b7f4e487b7100000000000000000000000000000000000000000000000000000000600052601160045260246000fd5b6000613fd4826134a0565b9150613fdf836134a0565b9250828201905080821115613ff757613ff6613f9a565b5b92915050565b6000614008826134a0565b9150614013836134a0565b9250828202614021816134a0565b9150828204841483151761403857614037613f9a565b5b5092915050565b7f4e487b7100000000000000000000000000000000000000000000000000000000600052601260045260246000fd5b6000614079826134a0565b9150614084836134a0565b9250826140945761409361403f565b5b828204905092915050565b60006080820190506140b460008301876138db565b6140c16020830186613503565b6140ce6040830185613503565b6140db6060830184613503565b95945050505050565b7f4e6f7468696e6720746f20726566756e64000000000000000000000000000000600082015250565b600061411a601183613856565b9150614125826140e4565b602082019050919050565b600060208201905081810360008301526141498161410d565b9050919050565b60006040820190506141656000830185613664565b6141726020830184613503565b9392505050565b7f526566756e64207472616e73666572206661696c656400000000000000000000600082015250565b60006141af601683613856565b91506141ba82614179565b602082019050919050565b600060208201905081810360008301526141de816141a2565b9050919050565b60006040820190506141fa60008301856138db565b6142076020830184613503565b9392505050565b7f4e6f2077696e6e696e6720736861726573000000000000000000000000000000600082015250565b6000614244601183613856565b915061424f8261420e565b602082019050919050565b6000602082019050818103600083015261427381614237565b9050919050565b6000614285826134a0565b9150614290836134a0565b92508282039050818111156142a8576142a7613f9a565b5b92915050565b7f5061796f7574207472616e73666572206661696c656400000000000000000000600082015250565b60006142e4601683613856565b91506142ef826142ae565b602082019050919050565b60006020820190508181036000830152614313816142d7565b9050919050565b7f466565207472616e73666572206661696c656400000000000000000000000000600082015250565b6000614350601383613856565b915061435b8261431a565b602082019050919050565b6000602082019050818103600083015261437f81614343565b9050919050565b7f43616e6e6f742063616e63656c207265736f6c766564206d61726b6574000000600082015250565b60006143bc601d83613856565b91506143c782614386565b602082019050919050565b600060208201905081810360008301526143eb816143af565b9050919050565b7f4c69717569646974792072657475726e206661696c6564000000000000000000600082015250565b6000614428601783613856565b9150614433826143f2565b602082019050919050565b600060208201905081810360008301526144578161441b565b9050919050565b7f4576656e74206d75737420626520696e20746865206675747572650000000000600082015250565b6000614494601b83613856565b915061449f8261445e565b602082019050919050565b600060208201905081810360008301526144c381614487565b9050919050565b7f5265736f6c7574696f6e206d757374206265206166746572206576656e74207360008201527f7461727400000000000000000000000000000000000000000000000000000000602082015250565b6000614526602483613856565b9150614531826144ca565b604082019050919050565b6000602082019050818103600083015261455581614519565b9050919050565b7f496e697469616c206c6971756964697479207265717569726564000000000000600082015250565b6000614592601a83613856565b915061459d8261455c565b602082019050919050565b600060208201905081810360008301526145c181614585565b9050919050565b7f4c6971756964697479207472616e73666572206661696c656400000000000000600082015250565b60006145fe601983613856565b9150614609826145c8565b602082019050919050565b6000602082019050818103600083015261462d816145f1565b9050919050565b600061463f826134a0565b91507fffffffffffffffffffffffffffffffffffffffffffffffffffffffffffffffff820361467157614670613f9a565b5b600182019050919050565b7f4e487b7100000000000000000000000000000000000000000000000000000000600052604160045260246000fd5b7f4e487b7100000000000000000000000000000000000000000000000000000000600052602260045260246000fd5b600060028204905060018216806146f257607f821691505b602082108103614705576147046146ab565b5b50919050565b60008190508160005260206000209050919050565b60006020601f8301049050919050565b600082821b905092915050565b60006008830261476d7fffffffffffffffffffffffffffffffffffffffffffffffffffffffffffffffff82614730565b6147778683614730565b95508019841693508086168417925050509392505050565b60006147aa6147a56147a0846134a0565b6135d8565b6134a0565b9050919050565b6000819050919050565b6147c48361478f565b6147d86147d0826147b1565b84845461473d565b825550505050565b600090565b6147ed6147e0565b6147f88184846147bb565b505050565b5b8181101561481c576148116000826147e5565b6001810190506147fe565b5050565b601f821115614861576148328161470b565b61483b84614720565b8101602085101561484a578190505b61485e61485685614720565b8301826147fd565b50505b505050565b600082821c905092915050565b600061488460001984600802614866565b1980831691505092915050565b600061489d8383614873565b9150826002028217905092915050565b6148b68261384b565b67ffffffffffffffff8111156148cf576148ce61467c565b5b6148d982546146da565b6148e4828285614820565b600060209050601f8311600181146149175760008415614905578287015190505b61490f8582614891565b865550614977565b601f1984166149258661470b565b60005b8281101561494d57848901518255600182019150602085019450602081019050614928565b8683101561496a5784890151614966601f891682614873565b8355505b6001600288020188555050505b505050505050565b82818337600083830152505050565b600061499a8385613856565b93506149a783858461497f565b6149b083613891565b840190509392505050565b600060608201905081810360008301526149d681868861498e565b90506149e56020830185613503565b6149f26040830184613503565b95945050505050565b7f4576656e74206e6f742073746172746564207965740000000000000000000000600082015250565b6000614a31601583613856565b9150614a3c826149fb565b602082019050919050565b60006020820190508181036000830152614a6081614a24565b9050919050565b7f4d696e696d756d20706f6f6c206e6f7420726561636865640000000000000000600082015250565b6000614a9d601883613856565b9150614aa882614a67565b602082019050919050565b60006020820190508181036000830152614acc81614a90565b9050919050565b7f436173686f75742077696e646f7720636c6f7365640000000000000000000000600082015250565b6000614b09601583613856565b9150614b1482614ad3565b602082019050919050565b60006020820190508181036000830152614b3881614afc565b9050919050565b7f4e6f205945532073686172657320746f20636173686f75740000000000000000600082015250565b6000614b75601883613856565b9150614b8082614b3f565b602082019050919050565b60006020820190508181036000830152614ba481614b68565b9050919050565b7f436173686f7574206c696d697420726561636865640000000000000000000000600082015250565b6000614be1601583613856565b9150614bec82614bab565b602082019050919050565b60006020820190508181036000830152614c1081614bd4565b9050919050565b7f4e6f204e4f2073686172657320746f20636173686f7574000000000000000000600082015250565b6000614c4d601783613856565b9150614c5882614c17565b602082019050919050565b60006020820190508181036000830152614c7c81614c40565b9050919050565b7f436173686f7574207472616e73666572206661696c6564000000000000000000600082015250565b6000614cb9601783613856565b9150614cc482614c83565b602082019050919050565b60006020820190508181036000830152614ce881614cac565b9050919050565b6000606082019050614d0460008301866138db565b614d116020830185613503565b614d1e6040830184613503565b94935050505056fea2646970667358221220177ae7588ce7b7a788327a453bfba71a1190cf323582a76ab4947e5e989b8d7464736f6c634300081c0033",
  "linkReferences": {},
  "deployedLinkReferences": {}
}