{
  "_format": "hh-sol-artifact-1",
  "contractName": "Treasury",
  "sourceName": "contracts/Treasury.sol",
  "abi": [
    {
      "inputs": [
        {
          "internalType": "address",
          "name": "_usdc",
          "type": "address"
        }
      ],
      "stateMutability": "nonpayable",
      "type": "constructor"
    },
    {
      "inputs": [
        {
          "internalType": "address",
          "name": "owner",
          "type": "address"
        }
      ],
      "name": "OwnableInvalidOwner",
      "type": "error"
    },
    {
      "inputs": [
        {
          "internalType": "address",
          "name": "account",
          "type": "address"
        }
      ],
      "name": "OwnableUnauthorizedAccount",
      "type": "error"
    },
    {
      "anonymous": false,
      "inputs": [
        {
          "indexed": false,
          "internalType": "uint256",
          "name": "amount",
          "type": "uint256"
        },
        {
          "indexed": false,
          "internalType": "uint256",
          "name": "timestamp",
          "type": "uint256"
        }
      ],
      "name": "FundsReceived",
      "type": "event"
    },
    {
      "anonymous": false,
      "inputs": [
        {
          "indexed": true,
          "internalType": "address",
          "name": "to",
          "type": "address"
        },
        {
          "indexed": false,
          "internalType": "uint256",
          "name": "amount",
          "type": "uint256"
        },
        {
          "indexed": false,
          "internalType": "uint256",
          "name": "timestamp",
          "type": "uint256"
        }
      ],
      "name": "FundsWithdrawn",
      "type": "event"
    },
    {
      "anonymous": false,
      "inputs": [
        {
          "indexed": true,
          "internalType": "address",
          "name": "previousOwner",
          "type": "address"
        },
        {
          "indexed": true,
          "internalType": "address",
          "name": "newOwner",
          "type": "address"
        }
      ],
      "name": "OwnershipTransferred",
      "type": "event"
    },
    {
      "inputs": [],
      "name": "getBalance",
      "outputs": [
        {
          "internalType": "uint256",
          "name": "",
          "type": "uint256"
        }
      ],
      "stateMutability": "view",
      "type": "function"
    },
    {
      "inputs": [],
      "name": "owner",
      "outputs": [
        {
          "internalType": "address",
          "name": "",
          "type": "address"
        }
      ],
      "stateMutability": "view",
      "type": "function"
    },
    {
      "inputs": [
        {
          "internalType": "uint256",
          "name": "_amount",
          "type": "uint256"
        }
      ],
      "name": "receiveFunds",
      "outputs": [],
      "stateMutability": "nonpayable",
      "type": "function"
    },
    {
      "inputs": [],
      "name": "renounceOwnership",
      "outputs": [],
      "stateMutability": "nonpayable",
      "type": "function"
    },
    {
      "inputs": [],
      "name": "totalRevenue",
      "outputs": [
        {
          "internalType": "uint256",
          "name": "",
          "type": "uint256"
        }
      ],
      "stateMutability": "view",
      "type": "function"
    },
    {
      "inputs": [
        {
          "internalType": "address",
          "name": "newOwner",
          "type": "address"
        }
      ],
      "name": "transferOwnership",
      "outputs": [],
      "stateMutability": "nonpayable",
      "type": "function"
    },
    {
      "inputs": [],
      "name": "usdc",
      "outputs": [
        {
          "internalType": "contract IERC20",
          "name": "",
          "type": "address"
        }
      ],
      "stateMutability": "view",
      "type": "function"
    },
    {
      "inputs": [
        {
          "internalType": "address",
          "name": "_to",
          "type": "address"
        },
        {
          "internalType": "uint256",
          "name": "_amount",
          "type": "uint256"
        }
      ],
      "name": "withdraw",
      "outputs": [],
      "stateMutability": "nonpayable",
      "type": "function"
    }
  ],
  "bytecode": "0x608060405234801561001057600080fd5b50604051610fc5380380610fc583398181016040528101906100329190610223565b33600073ffffffffffffffffffffffffffffffffffffffff168173ffffffffffffffffffffffffffffffffffffffff16036100a55760006040517f1e4fbdf700000000000000000000000000000000000000000000000000000000815260040161009c919061025f565b60405180910390fd5b6100b4816100fc60201b60201c565b5080600160006101000a81548173ffffffffffffffffffffffffffffffffffffffff021916908373ffffffffffffffffffffffffffffffffffffffff1602179055505061027a565b60008060009054906101000a900473ffffffffffffffffffffffffffffffffffffffff169050816000806101000a81548173ffffffffffffffffffffffffffffffffffffffff021916908373ffffffffffffffffffffffffffffffffffffffff1602179055508173ffffffffffffffffffffffffffffffffffffffff168173ffffffffffffffffffffffffffffffffffffffff167f8be0079c531659141344cd1fd0a4f28419497f9722a3daafe3b4186f6b6457e060405160405180910390a35050565b600080fd5b600073ffffffffffffffffffffffffffffffffffffffff82169050919050565b60006101f0826101c5565b9050919050565b610200816101e5565b811461020b57600080fd5b50565b60008151905061021d816101f7565b92915050565b600060208284031215610239576102386101c0565b5b60006102478482850161020e565b91505092915050565b610259816101e5565b82525050565b60006020820190506102746000830184610250565b92915050565b610d3c806102896000396000f3fe608060405234801561001057600080fd5b50600436106100885760003560e01c80638da5cb5b1161005b5780638da5cb5b146100ef578063bf2d9e0b1461010d578063f2fde38b1461012b578063f3fef3a31461014757610088565b806312065fe01461008d5780633e413bee146100ab578063715018a6146100c95780638827e09b146100d3575b600080fd5b610095610163565b6040516100a29190610836565b60405180910390f35b6100b3610206565b6040516100c091906108d0565b60405180910390f35b6100d161022c565b005b6100ed60048036038101906100e8919061091c565b610240565b005b6100f76103b9565b604051610104919061096a565b60405180910390f35b6101156103e2565b6040516101229190610836565b60405180910390f35b610145600480360381019061014091906109b1565b6103e8565b005b610161600480360381019061015c91906109de565b61046e565b005b6000600160009054906101000a900473ffffffffffffffffffffffffffffffffffffffff1673ffffffffffffffffffffffffffffffffffffffff166370a08231306040518263ffffffff1660e01b81526004016101c0919061096a565b602060405180830381865afa1580156101dd573d6000803e3d6000fd5b505050506040513d601f19601f820116820180604052508101906102019190610a33565b905090565b600160009054906101000a900473ffffffffffffffffffffffffffffffffffffffff1681565b6102346106ca565b61023e6000610751565b565b60008111610283576040517f08c379a000000000000000000000000000000000000000000000000000000000815260040161027a90610abd565b60405180910390fd5b600160009054906101000a900473ffffffffffffffffffffffffffffffffffffffff1673ffffffffffffffffffffffffffffffffffffffff166323b872dd3330846040518463ffffffff1660e01b81526004016102e293929190610add565b6020604051808303816000875af1158015610301573d6000803e3d6000fd5b505050506040513d601f19601f820116820180604052508101906103259190610b4c565b610364576040517f08c379a000000000000000000000000000000000000000000000000000000000815260040161035b90610bc5565b60405180910390fd5b80600260008282546103769190610c14565b925050819055507f063d07ee72a7483b8e07ca09054bb686775c5c030f945dde3823a5257a0a93eb81426040516103ae929190610c48565b60405180910390a150565b60008060009054906101000a900473ffffffffffffffffffffffffffffffffffffffff16905090565b60025481565b6103f06106ca565b600073ffffffffffffffffffffffffffffffffffffffff168173ffffffffffffffffffffffffffffffffffffffff16036104625760006040517f1e4fbdf7000000000000000000000000000000000000000000000000000000008152600401610459919061096a565b60405180910390fd5b61046b81610751565b50565b6104766106ca565b600081116104b9576040517f08c379a00000000000000000000000000000000000000000000000000000000081526004016104b090610abd565b60405180910390fd5b80600160009054906101000a900473ffffffffffffffffffffffffffffffffffffffff1673ffffffffffffffffffffffffffffffffffffffff166370a08231306040518263ffffffff1660e01b8152600401610515919061096a565b602060405180830381865afa158015610532573d6000803e3d6000fd5b505050506040513d601f19601f820116820180604052508101906105569190610a33565b1015610597576040517f08c379a000000000000000000000000000000000000000000000000000000000815260040161058e90610cbd565b60405180910390fd5b600160009054906101000a900473ffffffffffffffffffffffffffffffffffffffff1673ffffffffffffffffffffffffffffffffffffffff1663a9059cbb83836040518363ffffffff1660e01b81526004016105f4929190610cdd565b6020604051808303816000875af1158015610613573d6000803e3d6000fd5b505050506040513d601f19601f820116820180604052508101906106379190610b4c565b610676576040517f08c379a000000000000000000000000000000000000000000000000000000000815260040161066d90610bc5565b60405180910390fd5b8173ffffffffffffffffffffffffffffffffffffffff167ffbc3a599b784fe88772fc5abcc07223f64ca0b13acc341f4fb1e46bef0510eb482426040516106be929190610c48565b60405180910390a25050565b6106d2610815565b73ffffffffffffffffffffffffffffffffffffffff166106f06103b9565b73ffffffffffffffffffffffffffffffffffffffff161461074f57610713610815565b6040517f118cdaa7000000000000000000000000000000000000000000000000000000008152600401610746919061096a565b60405180910390fd5b565b60008060009054906101000a900473ffffffffffffffffffffffffffffffffffffffff169050816000806101000a81548173ffffffffffffffffffffffffffffffffffffffff021916908373ffffffffffffffffffffffffffffffffffffffff1602179055508173ffffffffffffffffffffffffffffffffffffffff168173ffffffffffffffffffffffffffffffffffffffff167f8be0079c531659141344cd1fd0a4f28419497f9722a3daafe3b4186f6b6457e060405160405180910390a35050565b600033905090565b6000819050919050565b6108308161081d565b82525050565b600060208201905061084b6000830184610827565b92915050565b600073ffffffffffffffffffffffffffffffffffffffff82169050919050565b6000819050919050565b600061089661089161088c84610851565b610871565b610851565b9050919050565b60006108a88261087b565b9050919050565b60006108ba8261089d565b9050919050565b6108ca816108af565b82525050565b60006020820190506108e560008301846108c1565b92915050565b600080fd5b6108f98161081d565b811461090457600080fd5b50565b600081359050610916816108f0565b92915050565b600060208284031215610932576109316108eb565b5b600061094084828501610907565b91505092915050565b600061095482610851565b9050919050565b61096481610949565b82525050565b600060208201905061097f600083018461095b565b92915050565b61098e81610949565b811461099957600080fd5b50565b6000813590506109ab81610985565b92915050565b6000602082840312156109c7576109c66108eb565b5b60006109d58482850161099c565b91505092915050565b600080604083850312156109f5576109f46108eb565b5b6000610a038582860161099c565b9250506020610a1485828601610907565b9150509250929050565b600081519050610a2d816108f0565b92915050565b600060208284031215610a4957610a486108eb565b5b6000610a5784828501610a1e565b91505092915050565b600082825260208201905092915050565b7f416d6f756e74206d7573742062652067726561746572207468616e207a65726f600082015250565b6000610aa7602083610a60565b9150610ab282610a71565b602082019050919050565b60006020820190508181036000830152610ad681610a9a565b9050919050565b6000606082019050610af2600083018661095b565b610aff602083018561095b565b610b0c6040830184610827565b949350505050565b60008115159050919050565b610b2981610b14565b8114610b3457600080fd5b50565b600081519050610b4681610b20565b92915050565b600060208284031215610b6257610b616108eb565b5b6000610b7084828501610b37565b91505092915050565b7f5472616e73666572206661696c65640000000000000000000000000000000000600082015250565b6000610baf600f83610a60565b9150610bba82610b79565b602082019050919050565b60006020820190508181036000830152610bde81610ba2565b9050919050565b7f4e487b7100000000000000000000000000000000000000000000000000000000600052601160045260246000fd5b6000610c1f8261081d565b9150610c2a8361081d565b9250828201905080821115610c4257610c41610be5565b5b92915050565b6000604082019050610c5d6000830185610827565b610c6a6020830184610827565b9392505050565b7f496e73756666696369656e742062616c616e6365000000000000000000000000600082015250565b6000610ca7601483610a60565b9150610cb282610c71565b602082019050919050565b60006020820190508181036000830152610cd681610c9a565b9050919050565b6000604082019050610cf2600083018561095b565b610cff6020830184610827565b939250505056fea2646970667358221220a1574bc09ef320853b8aa8f4243fa6616b2b0b01c776e6abcf3a277f23d011c664736f6c634300081c0033",
  "linkReferences": {},
  "deployedLinkReferences": {}
}